:020000040800F2
:1000000050120020054C0008F14A0008F34A00088D
:10001000F54A0008F74A0008F94A00080000000005
:10002000000000000000000000000000214C00085B
:10003000FB4A000800000000254C0008FD4A0008AB
:10004000294C00082D4C0008314C0008354C0008A4
:10005000394C00083D4C0008414C0008454C000854
:10006000494C00084D4C0008514C0008554C000804
:10007000594C0008134B00085D4C0008094B000860
:10008000614C0008654C0008694C00086D4C000884
:10009000714C0008754C0008794C00087D4C000834
:1000A000814C0008854C0008894C00088D4C0008E4
:1000B000914C0008954C0008994C00089D4C000894
:1000C000A14C0008A54C0008A94C0008AD4C000844
:1000D000B14C0008B54C0008B94C0008BD4C0008F4
:1000E000C14C0008C54C0008C94C0008CD4C0008A4
:1000F000D14C0008D54C0008D94C0008DD4C000854
:10010000E14C0008E54C0008E94C0008ED4C000803
:10011000F14C0008F54C0008F94C0008FD4C0008B3
:10012000014D0008054D0008094D00080D4D00085F
:100130002DE9F14FB2B09946924600230691CDE9E0
:1001400000333C9A0F930DF14A0114914A7011E06B
:10015000329E57462C4617F8011B0698B0470028D8
:10016000069000F026810F98401C641E0F90F2D17B
:100170003296AA449AF80000252808D100210022CE
:1001800009910A920B910C920D910E920FE06A4622
:100190004FF0FF31504601F07FF8050002D10F9873
:1001A00000F066BED4D50125E3E741F001011AF85D
:1001B000010F2028F9D023280CD02B2804D02D287B
:1001C00005D0302809D00BE041F00201EFE741F003
:1001D0000401ECE741F00801E9E741F01001E6E72E
:1001E0002A280FD1D9F8002052F8040BC9F80020B2
:1001F0000028119003D54042119041F004010AF10A
:10020000010A14E01192DFF8EC3B0AE011989842E1
:1002100005DA00EB800402EB4402303A11920AF155
:10022000010A9AF80020A2F130000A28EED39AF8C9
:1002300000002E2803D04FF0FF32109229E01AF868
:10024000010F2A2809D1D9F8000050F8042BC9F869
:10025000000010920AF1010A1BE02D280CBF0AF1E0
:10026000010A002000221092DFF8882B0BE040B931
:10027000109B934205DA03EB830504EB4504303C05
:1002800010940AF1010A9AF80040A4F130030A2BF5
:10029000EDD3ADF848100FF660309AF8001001F079
:1002A00005F808B11AF8010B8DF84A009DF84A00CC
:1002B000682805D19AF8000068280CD1622106E070
:1002C0006C2804BF9AF800006C2804D171218DF8C5
:1002D0004A100AF1010A1FA808901AF801BBBBF1E5
:1002E00025012DD01C3900F06181091F022940F23F
:1002F0005D810E392AD0491F00F0B384093900F01E
:100300005581891E00F04985491E00F0F584491E7B
:10031000022940F24B81091F00F0EE84491F00F0D2
:10032000BA80491E00F09D84491E65D0C91E21D0A7
:10033000891E00F09684C91E00F0938400F04CBD25
:1003400025238DF87C30012109912AE06C208DF85D
:100350004A00D9F8000050F8042BC9F80000002A20
:1003600043D11499487800283DD04FF0FF340FF660
:10037000902012E09DF84A006C28EAD0D9F80000DD
:1003800050F8044BC9F800000794D4B91499487880
:1003900098B14FF0FF340FF6842000F0A1FF201A2F
:1003A00007D132981FAA04A900F065FD00287FF547
:1003B000E1AE4FF0FF3000F05BBD0FF67C20079000
:1003C000EFE7109D002D04D5204600F0A9FF04465C
:1003D00007E02A46204600F0BFFF002814BF041B98
:1003E0002C460A94DDE70FF65422329804A900F057
:1003F000C8FD0028D5D5DCE7D9F8001051F8040B6A
:10040000C9F8001020F00004002121F0FF351FABD7
:10041000CDE904450793DDE9042308993C2413B989
:100420000AB9109898B102F00F053035641EEEB28B
:100430003A2EA8BF2735120942EA03721B090D554F
:1004400008BF002A03D007980D19A842EBD308195A
:100450000790C4F13C0210980A92824209DABDF872
:100460004810821A4FF6EF7001400C92ADF8481018
:1004700097E7002895D59DF8480000F01400102853
:100480008FD1119B09990C985B1A1B1A9A1A002A92
:1004900087DD0C9285E71499487820B14FF0FF343E
:1004A0000FF69C1079E79DF84A00622862D0682810
:1004B00019D06A2840D06C2806D071284DD07428F5
:1004C0002DD07A281ED064E0D9F8001051F8040B22
:1004D000C9F8001020B94FF0FF340FF67C105CE72C
:1004E0000F9901605DE7D9F8001051F8040BC9F8C5
:1004F000001020B94FF0FF340FF65C104DE70F9954
:1005000001804EE7D9F8001051F8040BC9F800102B
:100510000028E5D14FF0FF340FF63C103DE7D9F845
:10052000001051F8040BC9F800100028D8D14FF082
:10053000FF340FF6241030E7D9F8001051F8040BFF
:10054000C9F8001020B94FF0FF340FF60C1024E763
:100550000F9AD317C0E9002323E7D9F8001051F808
:10056000040BC9F800100028F2D14FF0FF340FF649
:10057000E80012E7D9F8001051F8040BC9F8001090
:1005800020B94FF0FF340FF6D00006E70F99017045
:1005900007E7D9F8001051F8040BC9F8001000283B
:1005A0009ED14FF0FF340FF6B000F6E6D9F80020E8
:1005B000D21D22F00702C9F80020D2E9000108325A
:1005C000C9F80020CDE90401C80F02D009982D21F7
:1005D0000AE0BDF84800810702D509982B2103E005
:1005E000C00705D5099820211FAA1154401C099065
:1005F000DDE9042309991FA8CDE92E2308444BF017
:1006000020016129079015AC0BD01099002902D563
:100610000621109105E001BF4BF02001672901225E
:100620001092DDE9042359004915491C10D11A0321
:100630000ED0ABF1610503211A2D0A9102D20FF6FB
:10064000A43101E00FF6A031032200F0B1FEA8E6CC
:1006500059004915491C0AD11A0308D1ABF16105AB
:1006600003211A2D0A9116D30FF68431ECE7DDE948
:100670000401CDE93001DDE9302323F00047B7F56F
:10068000801F22F000060DD20022002F08BF002E8E
:10069000029203D116E00FF65431D5E702AA00F01A
:1006A000DBFE0FE0DFF8EC0ADFF8EC1A00EB175086
:1006B0000290DDE930234FF0FF301940DFF8DC7A9B
:1006C00010403943CDE904014BF0200061280DD1E1
:1006D000079830210170821CBBF1610F07920CBF9B
:1006E0007821582141700998801C0990DDE90401A6
:1006F00020F0000231F0004308BF002A02D100269A
:10070000002571E14BF02008B8F1610F40F0BE8088
:100710001098002847BF21210391401C0390039F9C
:10072000DDE92E017F1C00220023DDE9044500F0F5
:10073000CBFE02998DF8542038BF85F00045091F83
:10074000002F02910DF155065DDDDFF8541ACDE959
:10075000302140F2FF732E932046294600220023C9
:1007600000F0CAFE4FD24800400D00F11C0215D027
:10077000002A13DD2E9B9A420ADBDDE9300121F0CD
:10078000004205F000400243DDE93001114611E06E
:100790006FF31E5141EA025120460BE024F00000A5
:1007A00035F0004108BF00280FBF29461C2229460A
:1007B00000F0BAFE04460D4600F054FFFF1F002F64
:1007C000804609DD00F06CFF02460B4620462946B4
:1007D00000F078FF04460D46F01D0721B8F1000F28
:1007E0000CDD491E5EBF08F00F0200F8012D4FEA34
:1007F0002818F3D502E0002200F8012D491EFAD591
:10080000C61D002FA8DC0DF15500361A039886424C
:10081000D8BF304600280DF1550430D4B04206DA76
:100820000DF155010A5C082AA8BF0F2100DA00214A
:10083000024615AB134400E0401E13F80159521E46
:100840008D42F9D00F2904D10DF155018B5C5B1C51
:100850008B54002A04D50299091D15AC401C029145
:10086000411E0CD46218ABF13A0613783033DDB276
:100870003A2DA8BFF318491E02F80139F5D5109991
:10088000002940F1AF80421E1092ABE00299DFF8E0
:10089000142947F29750414391FBF2F2DDE92E45CE
:1008A000029225F00045D2F1070204DD20462946D8
:1008B00000F04CFC0BE052420020DFF8EC1800F096
:1008C00045FC02460B462046294600F06DFF0446D3
:1008D000B8F1660F109806BF029F0A3706273F1827
:1008E000142FC8BF142730208DF854000D46002067
:1008F000DFF8B818CDE92E010DF15506002F33DDD4
:100900002046294601F074F801460A4606F108031C
:1009100004200A26B2FBF6F606EB860EA2EB4E0288
:10092000303203F8012C0A22B6FBF2F202EB820EFF
:10093000A6EB4E063036401E03F8026DE9D1083FA3
:10094000002F03F10806D9DD084601F065F80246DC
:100950000B462046294600F0B5FEDDE92E2301F0C6
:1009600069F804460D46CBE70DF15500361A0DF136
:10097000550404E00298401E761E0290641C207804
:100980003028F7D0B8F1660F02D10299491C04E073
:10099000B8F1650F0CBF012100211098081886429C
:1009A000B8BF701E00281DD4B04204DA215C34297F
:1009B000C8BF392100DC30210246631E9D1800E0CB
:1009C000401E15F80169521E8E42F9D0392902D114
:1009D000A15C491CA154002A04D50299491C1C465B
:1009E000401C02910646029D00F05AFC406A0778BE
:1009F000DDF8408030B2002802DC01260FF2F474EA
:100A00004BF02000662808BF6D1C16D0672846D121
:100A100028B210F1040F48DB404546DA9DF8480043
:100A20006D1C010703D430B24045B8BF804628B2E0
:100A3000B8EB000848BF4FF000080FFA85FB079895
:100A40000A99BBF1000F00F3B2804A1C0A923023CE
:100A50004354B8F1000F03DC9DF84800010704D5AA
:100A60000A98411C0A9107990F5418EB0B0FB8BF55
:100A7000C8F100052DB268420D90A84432B29045ED
:100A8000B8BF4646079B0A9836B20B9632462146B7
:100A9000184400F08DFCA8EB06000E90CBE0BBF1F3
:100AA000610F17D14FF0700B19E030B2404504DAF6
:100AB0009DF848100A0758BF8046B8F1010848BFA2
:100AC0004FF00008BBF1670F14BF4FF0450B4FF01C
:100AD000650B04E0BBF1410F08BF4FF0500B0A98C3
:100AE000411C0A91B8F1000F079914F8012B0A5420
:100AF00003DC9DF8480001071AD50A98411C0A91A9
:100B0000B8F1000F07990F5412DD761E30B2804500
:100B100007980A9BB8BF464632B22146184400F0F7
:100B200047FC0A9936B271180A91A8EB06000D909D
:100B300007980A9908442AB2002A80F800B003D422
:100B40002B224270811C04E02D2141701546811C2E
:100B50006D4200202EAA0A2409E02B4693FBF4F5EF
:100B600005EB8506A3EB460302F8013B401C2DB2C2
:100B7000002DF2DC012806DC4BF02002652A04BFC0
:100B8000302201F8012B00282EAA08D1302001F8CC
:100B9000010B06E0401E135C303301F8013B0028D6
:100BA000F8DC079A0A981044091A0B9143E00844AC
:100BB00031B22AB2914219DA32B2214600F0F8FB82
:100BC0000A9936B27118ABEB0606B8F1000F0A911C
:100BD0000D9603DC9DF84800020704D5079847549A
:100BE0000B99491C0B91CDF8388024E0214600F088
:100BF000DFFB0A98761B5844B8F1000F0A9003DC1B
:100C00009DF848100A0703D5411C0A9107990F5413
:100C100030B2804507980A9BB8BF464632B204EB13
:100C20000B01184400F0C4FB0A9836B230180A9041
:100C3000A8EB06000D909DF8480000F01400102865
:100C40007FF4AFAB099A0A990D988A180B9982180C
:100C50000E988A18821811988242BFF6A2AB821AA7
:100C600017E49DF84A00622808D068280ED06A2848
:100C700014D06C281FD0712810D01CE0D9F80010B7
:100C800051F8040BC9F80010C0B21AE0D9F80010EE
:100C900051F8040BC9F8001080B212E0D9F8002016
:100CA000D21D22F00702C9F80020D2E90001083263
:100CB000C9F8002006E0D9F8001051F8040BC9F873
:100CC00000100021CDE904019DF8480001075AD524
:100CD000DDE90423002B08BF002A54D04BF020008C
:100CE000782850D109981FA930220A54401C431C6F
:100CF000099301F800B046E09DF84A00622808D048
:100D000068280ED06A2814D06C281FD0712810D003
:100D10001CE0D9F8001051F8040BC9F8001040B2DB
:100D20001AE0D9F8001051F8040BC9F8001000B20D
:100D300012E0D9F80020D21D22F00702C9F80020E5
:100D4000D2E900010832C9F8002006E0D9F8001005
:100D500051F8040BC9F80010C117CDE904010029AE
:100D600002D509982D210AE0BDF84800810702D577
:100D700009982B2103E0C00705D5099820211FAA57
:100D80001154401C09901FA809990144079104A817
:100D9000594600F056F9FFF704BB9DF84A006C284D
:100DA0000BD001210991D9F8000050F8041BC9F8B3
:100DB00000008DF87C10FFF7F4BAD9F8000050F865
:100DC000041BC9F8000015914FF0FF32109200216A
:100DD000169115AAFFF709BB25210122BBF1000FCF
:100DE0008DF87C1009923FF4DCAA8DF87DB00221C9
:100DF000FFF7AABACBCCCC0C686A6C747A4C0000B2
:100E00007072696E74665F733A2062616420256C4B
:100E10007320617267756D656E7400007072696E23
:100E200074665F733A206261642025732061726783
:100E3000756D656E74000000000000000000000089
:100E40007072696E74665F733A20256E20646973F0
:100E5000616C6C6F776564007072696E74663A20BD
:100E600062616420256E20617267756D656E740025
:100E700033B0BDE8F08F2DE9FC410F4606469046A1
:100E80007A6B7869396ABC6A121AB869521A796A37
:100E9000121AF869521A121A97F83800141B4107EF
:100EA0000FD42020002C8DF800000ADD25460123F8
:100EB0006A463946304600F07DF900285DD16D1E46
:100EC000F5D17B6942463946304600F073F9002877
:100ED00053D130208DF800003D6A002D09DD01233B
:100EE0006A463946304600F065F9002845D16D1E46
:100EF000F5D1BB69FA683946304600F05BF9002845
:100F00003BD130208DF800007D6A002D08DD0123E3
:100F10006A463946304600F04DF970BB6D1EF6D179
:100F2000F868B969FB6942183946304600F042F961
:100F300018BB30208DF80000BD6A002D08DD0123AC
:100F40006A463946304600F035F9B0B96D1EF6D123
:100F500097F8380041070DD52020002C8DF80000AF
:100F600008DD01236A463946304600F023F920B9EE
:100F7000641EF6D10020BDE8F6814FF0FF30BDE8D9
:100F8000F6812DE9F8470D46A3B02F6B002F82465E
:100F9000904648BF6FF0004700F01DFE696B401897
:100FA00001AA0021C2E90011812828BF4FF0FF30BB
:100FB00044D289461EE0A74230DB686920188128A8
:100FC0000BD30021696303AA29465046FFF753FF5C
:100FD0005FEA000922D40020686103AB6E692246F3
:100FE0006946981900F0E4F9A6196E6158F8040BE7
:100FF000A0B13F1B002F11DDD8F8001001AA6846F0
:1010000000F04CF90446002C05D4D8F80000002864
:10101000D1D1641ECFD54FF0FF390EE0B9F1000FEA
:10102000504604D103AA2946FFF725FF8146B9F1AE
:10103000000F02D1002068616863484624B0BDE813
:10104000F0872DE9FC4307466F293E6908BF082455
:1010500005D041F02000782814BF0A2410243C2534
:10106000D7E90023642918BF69299046994605D11C
:10107000002B03D5D8F1000869EB4909B9F1000F3D
:1010800008BFB8F1000F0CD1386B50B9082C39D11A
:1010900097F83800010735D530203B2586F83B000E
:1010A00030E08DF80010404649462246E31700F034
:1010B00097FD3032D0B26D1E3A28019504DB9DF8C1
:1010C0000000A0F151018A18725540464946224657
:1010D000E31700F085FD80465FEA010908BFB8F11B
:1010E000000F03D0F86871198842DCD3082C09D1AD
:1010F00097F83800010705D5705D302802D06D1EC5
:1011000030207055C5F13C02BA617119F960386B35
:10111000824208DA821A3A624FF6EF70398F014044
:101120003987BDE8F38300280ED597F8380000F022
:101130001400102808D17B6B7969386A5B1A1B1A76
:101140009A1A002AC8BF3A62BDE8F3832DE9D0435A
:1011500006460F4614464FF00008DFF8549012E0A0
:10116000E00707D542464B463046394600F062FC60
:1011700006460F464046494642464B4600F05AFC5A
:10118000641080468946002CEAD130463946BDE8D5
:10119000D083000002FCFFFFFFFF0F800000E03F54
:1011A0000000F07FA08601000000F03F84D7974147
:1011B00000002440F8B505460E4617461C460020A0
:1011C0005CB117F8011BB068A847B06030B1F06A95
:1011D000401CF0620020641EF3D1F2BD4FF0FF30DE
:1011E000F2BD00006E616E004E414E00696E6600F9
:1011F000494E4600300030B4002513E050F8042B6F
:10120000D30744BFA9F101039A18091F042942F822
:10121000045BFAD213468C0744BF15809B1CC90798
:1012200048BF1D7050F8041B0029E7D130BC70473F
:101230001C48704770B45368D41801E05B1C491E09
:10124000042B08DA00291FBF057804F8015B10F8A9
:10125000016B002EF2D1536070BC704738B5144654
:101260001D4661B1FFF7E6FF61686A6B2046904753
:101270006FF00102811A02D0491E01D001E003E0A3
:1012800005E00021616032BD6FF0010032BD4FF01A
:10129000FF3032BDDA6B1047024BDFE7014BF9E755
:1012A000014870473C00002004000020C9B20278C9
:1012B0008A421AB11CBF10F8012FF9E718BF0020AD
:1012C0007047B1F5807F02D34FF0FF307047017057
:1012D000012070470078401E8041C043C00F704716
:1012E00080B500B906A005490B681BB12222002178
:1012F000984701E000F08CFD222002BD480200204A
:10130000636F6E73747261696E742068616E646C71
:1013100065723A20626164206D6573736167650070
:1013200000F10103810704D010F8011B820781B18D
:10133000FAD10268A2F10131914311F0803104BF6A
:1013400050F8042FF6E709BAB1FA81F100EBD100A9
:10135000401CC01A70470102C9B2830706D0521E52
:1013600022D310F8013B9942F7D11FE0083A13D37A
:1013700002F1040241EA012141EA014150F8043B33
:10138000121F21BF4B40A3F1013C2CEA030C1CF0BF
:10139000803FF3D0C9B2001F083210F8013B521E43
:1013A00028BF91EA030FF8D818BF0120401E7047EC
:1013B00062B38B0708D0521E11F8013B00F8013BC5
:1013C00000F024808B07F6D1830740F0208000BF17
:1013D000103A07D330B4B1E83810103AA0E838100A
:1013E000F9D230BC530724BFB1E80810A0E80810B8
:1013F00044BF51F8043B40F8043BD20724BF31F806
:10140000022B20F8022B44BF0B7803707047121F89
:1014100017D35B0009D151F8043B20F8023B1B0CA9
:10142000121F20F8023BF6D20BE051F8043B00F803
:10143000013B1B0A20F8023B1B0C121F00F8013B6A
:10144000F3D238BF121D521E24BF11F8013B00F821
:10145000013BF8D870472E0010B5144600F002F892
:10146000226010BDC1F30A5343B14A0012F5001FB8
:1014700028D2A3F2FE32A1EB0251704750EA410C90
:1014800020D001F0004C31EA0C01B1FA81F204BF26
:10149000B0FA80F3D2180B3AB2F120032CBF00FA55
:1014A00003F1914041EA0C013EBFC2F1200C20FA49
:1014B0000CF319439040524240F2FD33D21A01EB33
:1014C00003517047002270474FF4001C1CEB410F82
:1014D00094BF1CEB430F09E041EA030C50EA4C0CAB
:1014E00052EA0C0C03D2994208BF9042704714BFD5
:1014F0008B428242704743004FF4001C1CEB410FAB
:1015000094BF1CEB430F09E041EA030C50EA4C0C7A
:1015100052EA0C0C03D28B4208BF8242704714BFC0
:101520009942904270470000124254D440F2FF7C2E
:101530001CEA11530FD0634531D09B1863453CBF63
:1015400001EB0251704701F0004141EA0C510020CB
:10155000AFF30080704750EA410320D001F0004C07
:1015600091EA0C011CD0B1FA81F30B3B9A420DD9E0
:10157000D21A994051EA0C01C3F1200C20FA0CFC5C
:1015800061449840531C40F2FF7CD7E7914041EA08
:101590000C01C2F1200C20FA0CF319439040704763
:1015A000B0FA80F31533202BE0D3202AEED3203A73
:1015B000203B9A4209D9D21A00FA03F141EA0C0100
:1015C0000020531C40F2FF7CB8E700FA02F141EA28
:1015D0000C0100207047524240F2FF7C1CEA11537C
:1015E0000DD06345DBD0B2EB030C3CBFA1EB025145
:1015F00070470CF1010221EA035141F4801150EAD5
:10160000410CCCD001F0004C352A27DC30B481EA03
:101610000C01B2F1200309DAC2F12003044601FAF9
:1016200003F5D0402843D1409C400CE0C3F1200298
:10163000450020FA03F418BF44F0010421FA03F036
:1016400091400C43002174F1004550F1000051EB32
:101650000C01244230BC7FF47BAF70476146002010
:1016600076E70000C1F30A5340F2FE329B1A14DD04
:10167000D3F120034FEAE17208DDC90241EA50517B
:1016800041F00040D84080185040704703F2E130EC
:1016900010B1D24382F00040704700207047000034
:1016A000C11768B14840401AB0FA80F29040D21C8D
:1016B000C907C2F5846241EA025202EBD02140051B
:1016C0007047000070B44FF0004591EA030F40F1FD
:1016D000A3836B40841A71EB030603D2001BB14154
:1016E000121973414FF4001C1CEB410F34BF7CEB0B
:1016F000430442E00C0DA4EB1356352E4FDC45EAB3
:10170000C323DB0A45EAC121C912B6F120050DDD6C
:1017100063FA05F6EB4086EA0305124218BF45F06E
:101720000105C01851F100010CD213E062FA06F570
:10173000F2405540F3415A40B340F3405A408018BC
:10174000594107D349085FEA30005FEA350528BFF1
:1017500045F0010501F58011420875F1004250F194
:10176000000041EB04514E0016F5001F70BC38BF5D
:1017700070470020090D090570471CEB410F10D27E
:1017800052EA43060BD0BCEB410F05D80C0DAB431E
:10179000661E342EB6DD02E0AB438018594170BCA2
:1017A000704770BC70470000F0B540F2FF7581EAE9
:1017B000030C0CF0004C15EA11541DBF15EA135729
:1017C000AC42AF42E5E0BC41C1F31301C3F31303E4
:1017D000801A994143F4801304D2641E40004941A9
:1017E00080185941C90241EA5051B1FBF3F603FB9D
:1017F0001611A2FB0675D7EBC020A94102D2761EB6
:1018000080185941C90241EA5051B1FBF3FE03FB74
:101810001E11A2FB0E75D7EBC020A94103D2AEF179
:10182000010E80185941890241EA9051760546EA35
:101830008E2EB1FBF3F603FB1611A2FB0675D7EB58
:101840008020A94102D2761E80185941C90241EA7E
:1018500050514EEA060EB1FBF3F603FB1611A2FB44
:101860000675D7EBC020A94102D2761E80185941D7
:10187000C90241EA5051B1FBF3F703FB1711A2FB78
:101880000735D3EBC020A94167F100070CBF004228
:1018900047F0010766F3D5274FEA1E31B80814F563
:1018A000806412DDBD0775F1004250EB0E5051EB24
:1018B000045111F5801F5CBF41EA0C01F0BD4CF0F2
:1018C0007F6141F0E0410020F0BDBD076D0840EAB6
:1018D0000E5041F48011D4F10104B4F120060ADA6B
:1018E000C4F120060200E04001FA06F3E14018438B
:1018F000B24015430EE0342C13DCC6F1200445EA57
:1019000040056D0820FA06F2154321FA06F0A140C1
:101910000D43002175F1004250F1000051EB0C0124
:10192000F0BD00205FEA0C01F0BDCFB992185B4119
:10193000B3FA83F704BFB2FA82F6BF190B3FB7F1CF
:1019400020062FBF02FA06F3BB40C7F1200622FA99
:1019500006F638BF3343BA401CB1E419641E33E7BE
:101960007F4231F00041B1FA81F404BFB0FA80F651
:10197000A4190B3CB4F120062FBF00FA06F1A140D8
:10198000C4F1200620FA06F638BF3143A0403C1BC4
:101990001AE7AC421ABF05EA1357AF4212E050EA09
:1019A00041061CBF52EA4306BFE750EA41073046F2
:1019B00061461CBF41EA0551F0BD52EA430C08BF25
:1019C000C143F0BD00204FF4001616EB410F98BF45
:1019D00016EB430F08BF16EB410F24BFC14305E0D0
:1019E00016EB430F0CBF61464CEA0551F0BD0000F9
:1019F000400D491840EA81200CD2490DA1F58061C3
:101A0000491C40F0004005DBD1F11F0154BFC84024
:101A1000C017704700207047014648B1B0FA80F106
:101A20008840C91CC1F58461090501EBD02140053E
:101A300070470000B0B581EA030C0CF0004C40F296
:101A4000FF7515EA11541DBF15EA1357AC42AF429A
:101A500039E0E41923EA455343F48013C90241F005
:101A6000004141EA505EC7021100A7FB02020028B4
:101A70004FF00000EEFB01204FF00001E3FB0721D7
:101A800018BF42F00102401800214941E3FB0E015A
:101A9000A4F580640F0302D252004041494154F141
:101AA00001046CDD470872F1004250F1000051EB77
:101AB0000451A1F580115CBF41EA0C01B0BD4CEAB4
:101AC00005510020B0BD05EA1357AC4214BFAF4228
:101AD00041E050EA410E1CBF52EA430E02E061466B
:101AE0000020B0BD24423C441BD15FEA070EF6D073
:101AF000090302BF01460020AEF1140EB1FA81F7CE
:101B0000AEEB070401FA07FE0C37C7F1200100FA1B
:101B100007F7C8404EEA000E23EA455343F480130A
:101B2000A2E733F00043B3FA83F704BFB2FA82FEB0
:101B300077440B3FE41BB7F1200E2FBF02FA0EF3E0
:101B4000BB40C7F1200E22FA0EFE38BF43EA0E0357
:101B5000BA40641C82E750EA410E14BF52EA430EB9
:101B60006FF000014FF4001717EB430F8ABF1946BF
:101B700017EB410FB5E74CEA05510020B0BDD4F199
:101B80000104B4F120070FDAC4F12007520828BF7E
:101B900042F0010210FA07F501FA07F7E1BF2A4304
:101BA000E0403843E1400FE0352C98DCC7F12004D9
:101BB00052EA400220FA07F218BF42F0010231FA5D
:101BC00007F0A1400A43002172F1004250F10000E9
:101BD00051EB0C01B0BD80B5FFF72AFB006C02BDD4
:101BE000BBBBE1B1B2F5803F80F07E80022A1ED9F6
:101BF0008C46B1FBF2F102FB11C31B0443EA104314
:101C0000B3FBF2FC02FB1C3380B240EA0343B3FB9C
:101C1000F2F002FB103240EA0C4000237047022A27
:101C200005D98446B0FBF2F002FB10C270474AB1FE
:101C300005D100F0010249085FEA30007047002238
:101C40000023704700F09EB90B0002000021002025
:101C50007047904271EB030CF6D3B3F5803F2FD25F
:101C6000F0B5B3FA83F7B1FA81F4A7F10F0E3D1B7B
:101C70005340CEF1200602FA0EF2F3415340B5F183
:101C80000F0746D80F3C2C444140C4F12006A04029
:101C9000F1414140B1FBF3F603FB1611A2FB0645EF
:101CA000001BA94102D2761E8018594180EA010228
:101CB00021FA0EF362FA0EF200215A403046F0BDCE
:101CC00030B4B1FBF3FC03FB1C11A2FB0C45001B61
:101CD000A94103D2ACF1010C8018594130BC024635
:101CE0000B46604600217047B2F1807F65D3F0B5A6
:101CF000B2FA82F7B1FA81F4C7F10F063D1B22FA5E
:101D000006F307F1110EF24120355A40B5F10F07E5
:101D1000B8D94140C4F12006A040F1414140B1FB97
:101D2000F3FC03FB1C11A2FB0C45001BA94103D2D1
:101D3000BCF1010C801859410F2F12D30F3FC9037A
:101D400041EA5041B1FBF3F603FB1611A2FB064535
:101D5000D4EBC030A94102D2761E8018594146EA20
:101D6000CC3C07B34140C7F12006B840F1414140A7
:101D7000B1FBF3F603FB1611A2FB0645001BA941BC
:101D800002D2761E8018594180EA010221FA0EF330
:101D9000C7F1200462FA0EF20CFA07F05A402CFA4E
:101DA00004F13043F0BD80EA010221FA0EF3002174
:101DB00062FA0EF260465A40F0BD8C46B1FBF2F179
:101DC00002FB11C31B0243EA1063B3FBF2FC02FBEC
:101DD0001C331B024CEA002043EA1063B3FBF2FC05
:101DE00002FB1C331B024CEA002043EA1063B3FBE6
:101DF000F2FC02FB1C331B024CEA002043EA106396
:101E0000B3FBF2FC02FB1C324CEA002000237047BB
:101E1000012000F0B9B80000841A71EB030604D267
:101E20006E40001BB141121973414FF4001C1CEBB2
:101E3000410F34BF7CEB430683E00C0DA4EB13563B
:101E4000362E00F37C80012E45EAC32341DC43EAB1
:101E5000525312BFD20292025B08240545EAC12107
:101E600041EA5051D2EBC020994125D407D1B0FAB4
:101E700080F610FA06F162D00020203608E0B1FAB0
:101E800081F6B140C6F1200220FA02F21143B040BF
:101E90004FEAF474B4EB465434F001064FEA74048C
:101EA0000AD8D6F50016760D04F00044F04061FA29
:101EB00006F25040F1404840C00A40EA415021F04B
:101EC000004128BF5FEA500550F1000044EBD121EA
:101ED00035E0DB0A45EAC121C90AB6F120050EDD6D
:101EE00042EA0242120CC5F1200603FA06F6EB4064
:101EF00042EA06056D42984161F100010DE062FA87
:101F000006F5F240554063FA06FC82EA0C02F34003
:101F10005A406D42904161EB030111F4801F05D1DD
:101F2000641E620502D06D004041494121F48011D8
:101F3000430875F1004350F1000041EB045170BCBF
:101F400070471CEB410F15D223F0004352EA4306C1
:101F50000BD04FEA4C0CBCEB410F04D80C0D661EA5
:101F6000342EB7DDEBE7801A994150EA410608BFED
:101F70000021E4E708BF1CEB430F28BF6FF000010E
:101F8000DDE700007047000080B5AFF30080024A33
:101F900011001820ABBEFBE7260002002DE9F84334
:101FA000040000252078C00740F1D980DFF8FC0A42
:101FB000016811F00C01042907D0016811F00C012F
:101FC000082926D10068C00323D54FF480400100C2
:101FD000B1FA81F2D2B2520952F00102D2B2012A10
:101FE00003D1DFF8CC1A096805E00200B2FA82F1E9
:101FF000DFF8C01A0968B0FA80F212F01F02D1406F
:10200000C90740F1AC806068002840F0A88001203A
:1020100036E3DFF89C7A386830F48030386038680E
:1020200030F48020386000F061FD80464FF4804637
:102030003000B0FA80F1C9B2490951F00101C9B2CA
:10204000012901D1386805E03100B1FA81F0DFF8EB
:10205000640A00683100B1FA81F212F01F02D04028
:10206000C00707D500F042FDB0EB08006528DDD3BE
:10207000032005E36068B0F5803F04D1386850F470
:102080008030386020E06068002808D1386830F47B
:1020900080303860386830F48020386014E0606840
:1020A000B0F5A02F08D1386850F480203860386827
:1020B00050F48030386007E0386830F480303860A1
:1020C000386830F4802038606068002823D000F041
:1020D0000DFD05003000B0FA80F1C9B2490951F098
:1020E0000101C9B2012901D1386805E03100B1FA16
:1020F00081F0DFF8C00900683100B1FA81F212F016
:102100001F02D040C0072AD400F0F0FC401B652815
:10211000E0D30320B4E200F0E9FC05003000B0FA9F
:1021200080F1C9B2490951F00101C9B2012901D1B7
:10213000386805E03100B1FA81F0DFF8780900680D
:102140003100B1FA81F212F01F02D040C00706D56B
:1021500000F0CCFC401B6528E0D3032090E22078FF
:10216000800740F1B580DFF84409016811F00C0FD9
:1021700007D0016811F00C01082933D10068C003B1
:1021800030D45FF080400100B1FA81F2D2B252093E
:1021900052F00102D2B2012A03D1DFF81419096802
:1021A00005E00200B2FA82F1DFF808190968B0FA16
:1021B00080F212F01F02D140C90704D5206901281E
:1021C00001D001205CE2DFF8E80801685FF0F85216
:1021D000B2FA82F331F0F801666916FA03F3194393
:1021E000016075E02069002840D05FF00046B6FA33
:1021F00086F00121C0B2DFF8C02812EB8002116026
:1022000000F074FC05005FF080400100B1FA81F23B
:10221000D2B2520952F00102D2B2012A03D1DFF840
:102220009018096805E00200B2FA82F1DFF884181C
:102230000968B0FA80F212F01F02D140C90706D433
:1022400000F054FC401B0328DDD3032018E2DFF824
:10225000600801685FF0F852B2FA82F331F0F801D9
:10226000666916FA03F31943016031E05FF0004636
:10227000B6FA86F00021C0B2DFF83C2812EB8002EB
:10228000116000F033FC05005FF080400100B1FAFE
:1022900081F2D2B2520952F00102D2B2012A03D124
:1022A000DFF80C18096805E00200B2FA82F1DFF8E5
:1022B00004180968B0FA80F212F01F02D140C90771
:1022C00006D500F013FC401B0328DDD30320D7E123
:1022D0002078000754D5A06900282AD05FF0004676
:1022E000B6FA86F00121C0B2DFF8D02712EB8002E7
:1022F000116000F0FBFB05005FF080400100B1FAC7
:1023000081F20200B2FA82F3DFF8A8371B68B0FA54
:1023100080F616F01F06F340DB0706D400F0E6FB5C
:10232000401B0328E8D30320AAE1012000F0E4FBCE
:1023300026E05FF00046B6FA86F00021C0B2DFF872
:102340007C2712EB8002116000F0D0FB05005FF0EB
:1023500080400100B1FA81F20200B2FA82F3DFF8A4
:1023600054371B68B0FA80F616F01F06F340DB07FF
:1023700006D500F0BBFB401B0328E8D303207FE118
:102380002078400740F1C880DFF83407016851F039
:1023900080510160006810F0805000900098DFF8D4
:1023A0002467306850F48070306000F09FFB8046F6
:1023B0003068C00507D400F099FBB0EB0800652831
:1023C000F6D303205CE1DFF8006730684008400086
:1023D0003060306830F00400306000F087FB0700A8
:1023E0005FF080484046B0FA80F14146B1FA81F290
:1023F000D2B2520952F00202D2B2022A01D130689E
:1024000002E0DFF8B00600684146B1FA81F212F04E
:102410001F02D040C00708D500F068FBC01B41F286
:1024200089318842DCD303202AE1E068012804D105
:10243000306850F0010030601FE0E068002808D1EB
:102440003068400840003060306830F00400306090
:1024500013E0E068052808D1306850F004003060CF
:10246000306850F00100306007E0306840084000FC
:102470003060306830F004003060E068002825D01B
:1024800000F034FB05004046B0FA80F14146B1FA55
:1024900081F2D2B2520952F00202D2B2022A01D122
:1024A000306802E0DFF80C0600684146B1FA81F2BC
:1024B00012F01F02D040C0072ED400F017FB401BC3
:1024C00041F289318842DED30320D9E000F00EFBCF
:1024D00005004046B0FA80F14146B1FA81F2D2B22D
:1024E000520952F00202D2B2022A01D1306802E04F
:1024F000DFF8C00500684146B1FA81F212F01F0210
:10250000D040C00708D500F0F1FA401B41F28931F4
:102510008842DED30320B3E0E069002800F0AF80FA
:10252000DFF88865306810F00C00082800F0A580FE
:10253000E069022871D15FF08009B9FA89F0DFF80B
:1025400078750021C0B217EB8000016000F0CEFA70
:1025500080464020B0FA80F1C9B2490951F001012A
:10256000C9B2012903D1DFF84805006805E0402120
:10257000B1FA81F0DFF83C0500684021B1FA81F240
:1025800012F01F02D040C00707D500F0AFFAB0EB41
:1025900008000328DDD3032072E0206AB0F5803FF5
:1025A00005D1316831F40031A068014331603168F0
:1025B00031F47411206A0143606A0143316080265E
:1025C000B6FA86F00121C0B217EB8007396000F03F
:1025D0008DFA05004020B0FA80F1C9B2490951F0E6
:1025E0000101C9B2012903D1DFF8C404006805E084
:1025F0004021B1FA81F0DFF8BC0400684021B1FA53
:1026000081F212F01F02D040C00738D400F06EFAF9
:10261000401B0328DED3032032E08026B6FA86F082
:102620000021C0B2DFF8902412EB8002116000F0AC
:102630005DFA05004020B0FA80F1C9B2490951F0B5
:102640000101C9B2012903D1DFF86404006805E083
:102650004021B1FA81F0DFF85C0400684021B1FA52
:1026600081F212F01F02D040C00708D500F03EFAF8
:10267000401B0328DED3032002E0012000E00020FD
:10268000BDE8F2832DE9F04104000D000026DFF8DB
:102690003C74386810F00700A84280F0BA803868AF
:1026A000C008C00028433860386810F00700A8420E
:1026B00001D001207FE12078800707D5DFF81014D2
:1026C0000A6832F0F002A06802430A602078C0076E
:1026D00040F15881606801281ED14FF4804001000C
:1026E000B1FA81F2D2B2520952F00102D2B2012AF9
:1026F00003D1DFF8BC13096805E00200B2FA82F1E9
:10270000DFF8B0130968B0FA80F212F01F02D1406E
:10271000C90741D401204EE1606802281DD1402044
:10272000B0FA80F1C9B2490951F00101C9B20129D9
:1027300003D1DFF87C03006805E04021B1FA81F0A5
:10274000DFF8700300684021B1FA81F212F01F0235
:10275000D040C00720D401202DE15FF0804001006F
:10276000B1FA81F2D2B2520952F00102D2B2012A78
:1027700003D1DFF83C13096805E00200B2FA82F1E8
:10278000DFF830130968B0FA80F212F01F02D1406E
:10279000C90701D401200EE1DFF8347339688908D4
:1027A000890060680143396000F0A0F906006068A4
:1027B00001280ED1386810F00C00042800F0E280E7
:1027C00000F094F9801B41F289318842F2D3032052
:1027D000F1E0606802280ED1386810F00C0008287B
:1027E00000F0D08000F082F9801B41F289318842EC
:1027F000F2D30320DFE0386810F00C0F00F0C28045
:1028000000F074F9801B41F289318842F3D3032030
:10281000D1E02078800707D5DFF8B4120A6832F0DB
:10282000F002A06802430A602078C00740F19E8051
:10283000606801281DD14FF480400100B1FA81F297
:10284000D2B2520952F00102D2B2012A02D1984901
:10285000096805E00200B2FA82F1DFF8581209684F
:10286000B0FA80F212F01F02D140C9073FD4012014
:10287000A1E0606802281CD14020B0FA80F1C9B202
:10288000490951F00101C9B2012902D18848006803
:1028900005E04021B1FA81F0DFF81802006840211C
:1028A000B1FA81F212F01F02D040C0071FD40120FC
:1028B00081E05FF080400100B1FA81F2D2B25209AA
:1028C00052F00102D2B2012A02D17949096805E029
:1028D0000200B2FA82F1DFF8DC110968B0FA80F286
:1028E00012F01F02D140C90701D4012063E0DFF8D4
:1028F000E081D8F800108908890060680143C8F8B1
:10290000001000F0F3F80600606801280ED1D8F836
:10291000000010F00C00042828D000F0E7F8801B1D
:1029200041F289318842F2D3032044E060680228F2
:102930000ED1D8F8000010F00C00082816D000F0D6
:10294000D5F8801B41F289318842F2D3032032E06E
:10295000D8F8000010F00C0F08D000F0C7F8801B6A
:1029600041F289318842F3D3032024E03868C0085B
:10297000C00028433860386810F00700A84201D032
:10298000012018E02078400706D551490A6832F442
:10299000E062E06802430A602078000707D54C48EF
:1029A000016831F46051226951EAC20101600020DE
:1029B00000F0AEF80020BDE8F081F0B585B001A8C8
:1029C00044491022FEF704FD43480088ADF800009A
:1029D00000200021002200230025344E346814F02A
:1029E0000C07042F02D0082F02D028E03B4827E034
:1029F0004FF47050B0FA80F70DF1040C14F4701E0F
:102A00003EFA07FE1CF80E703B00E70311D5306854
:102A10004FF48046B6FA86F7EC4610F40030F840E2
:102A20001CF8000001002D48B0FBF1F058430200F3
:102A300003E02B4800FB03F00200100000E02748F1
:102A400005B0F0BD38B5FFF7B8FF184909685FF069
:102A50007062B2FA82F3234C234D11F0F001D94099
:102A6000695CC8402060206832BD10B5FFF7EAFFFE
:102A70000E4909685FF46002B2FA82F31A4C11F44D
:102A8000E061D940615CC84010BD10B5FFF7DAFFC6
:102A9000064909685FF4E012B2FA82F3124C11F4AD
:102AA0006051D940615CC84010BD00000410024074
:102AB00000100240241002400000424280044242C2
:102AC0001C10024000700040201002400020024014
:102AD00004100240E44B00085613000800127A006C
:102AE00000093D0000000020F44B00080148006888
:102AF000704700BF4402002031B50024FFF7F6FF05
:102B00000500FFF7F3FF401B00998842F9D331BD60
:102B100010B50400FFF796FF4FF47A71B0FBF1F0A7
:102B200000F097F8002221005FF0FF3000F075F808
:102B3000002010BD10B410F00703504C22684FF66F
:102B4000FF010A404E4951EA03210A43226010BCAA
:102B500070474A480068C0F302207047012210F015
:102B60001F018A40474903005BB25B0941F82320FB
:102B7000704710B4020052B2002A09D50A01424B34
:102B8000040064B214F00F04234403F8042C04E09E
:102B90000A013E4B040064B21A5510BC704770B471
:102BA000030013F00704D4F10700052801D3042023
:102BB00001E0D4F10700251D072D01D2002500E01A
:102BC000E51E012616FA00F0401E0140A94016FA43
:102BD00005F56D1E2A401143080070BC704710B502
:102BE0000400601EB0F1807F01D301200EE0601E62
:102BF000274908600F215FF0FF30FFF7BAFF002080
:102C000024490860072024490860002010BD10B541
:102C100004002000FFF78EFF10BD2DE9F0410400F5
:102C20000D0016000027FFF794FF804632002900B0
:102C30004046FFF7B4FF0100200040B2FFF799FFC4
:102C4000BDE8F08110B50400200040B2FFF786FF18
:102C500010BD10B504002000FFF7C1FF10BD04280F
:102C600005D10D490A6852F004020A6004E00A49DD
:102C70000A6832F004020A60704700000CED00E0C0
:102C80000000FA0500E100E018ED00E000E400E0DB
:102C900014E000E018E000E010E000E080B500F093
:102CA00001F801BD7047000010B4010000220029A6
:102CB00001D1012023E091F92100002802D1002058
:102CC00081F82000022081F82100086803686FF372
:102CD0000D134C6888680443C868044308690443BA
:102CE0004869044388690443C86904432343086866
:102CF000036000204863012081F82100002010BCFF
:102D00007047F8B504000D0016001F0094F920006C
:102D1000012801D102202AE0012084F820000220AD
:102D200084F821002068006840084000216808609D
:102D30003B0032002900200000F0B8FC2068006849
:102D400050F00200216808602068006850F004001C
:102D5000216808602068006850F008002168086059
:102D60002068006850F00100216808600020F2BD72
:102D700038B50400DFF8F4582068A8425AD3DFF8C9
:102D8000F00800682168DFF8EC28914201D10821A1
:102D90004EE02168DFF8E028914201D1802147E030
:102DA0002168DFF8D828914202D14FF400613FE05A
:102DB0002168DFF8CC28914202D14FF4004137E07E
:102DC0002168DFF8C028914202D15FF400212FE092
:102DD0002168DFF8B428914202D15FF4000127E0B6
:102DE0002168DFF8A828914202D15FF000611FE05E
:102DF0002168DFF89C28914201D1082118E0216860
:102E0000DFF89028914201D1802111E02168DFF89C
:102E10008828914202D14FF4006109E02168DFF86F
:102E20007C28914202D14FF4004101E05FF400217F
:102E3000084059E0DFF8680800682168DFF83428A6
:102E4000914201D108214EE02168DFF82C289142FF
:102E500001D1802147E02168DFF82028914202D18A
:102E60004FF400613FE02168DFF81428914202D15D
:102E70004FF4004137E02168DFF80828914202D181
:102E80005FF400212FE02168DFF8FC27914202D196
:102E90005FF4000127E02168DFF8F027914202D1BA
:102EA0005FF000611FE02168DFF8E427914201D163
:102EB000082118E02168DFF8DC27914201D1802148
:102EC00011E02168DFF8D027914202D14FF4006170
:102ED00009E02168DFF8C427914202D14FF4004194
:102EE00001E05FF400210840002800F0D180206854
:102EF0000068000740F1CC802068006830F00800CE
:102F0000216808602068A84259D32068DFF8641758
:102F1000884201D108204EE02068DFF85C17884223
:102F200001D1802047E02068DFF85017884202D1A5
:102F30004FF400603FE02068DFF84417884202D178
:102F40004FF4004037E02068DFF83817884202D19C
:102F50005FF400202FE02068DFF82C17884202D1B0
:102F60005FF4000027E02068DFF82017884202D1D4
:102F70005FF000601FE02068DFF81417884201D17D
:102F8000082018E02068DFF80C17884201D1802063
:102F900011E02068DFF80017884202D14FF400608A
:102FA00009E02068DFF8F416884202D14FF40040AF
:102FB00001E05FF40020DFF8EC16086058E02068BC
:102FC000DFF8B016884201D108204EE02068DFF813
:102FD000A816884201D1802047E02068DFF89C16BF
:102FE000884202D14FF400603FE02068DFF890167D
:102FF000884202D14FF4004037E02068DFF88416A1
:10300000884202D15FF400202FE02068DFF87816B4
:10301000884202D15FF4000027E02068DFF86C16D8
:10302000884202D15FF000601FE02068DFF8601680
:10303000884201D1082018E02068DFF8581688423D
:1030400001D1802011E02068DFF84C16884202D1BF
:103050004FF4006009E02068DFF84016884202D192
:103060004FF4004001E05FF40020DFF83C160860F8
:10307000606B50F001006063042084F821000020A0
:1030800084F82000206B002802D02000216B8847A4
:103090002068A8425AD3DFF8D80500682168DFF815
:1030A000D425914201D104214EE02168DFF8C825E2
:1030B000914201D1402147E02168DFF8C0259142CB
:1030C00002D14FF480613FE02168DFF8B4259142DE
:1030D00002D14FF4804137E02168DFF8A825914202
:1030E00002D15FF480212FE02168DFF89C25914216
:1030F00002D15FF4800127E02168DFF8902591423A
:1031000002D15FF080611FE02168DFF884259142E1
:1031100001D1042118E02168DFF87825914201D11E
:10312000402111E02168DFF87025914202D14FF46F
:10313000806109E02168DFF86425914202D14FF4F3
:10314000804101E05FF48021084059E0DFF850053C
:1031500000682168DFF81C25914201D104214EE06E
:103160002168DFF81425914201D1402147E0216810
:10317000DFF80825914202D14FF480613FE02168D9
:10318000DFF8FC24914202D14FF4804137E02168FE
:10319000DFF8F024914202D15FF480212FE0216812
:1031A000DFF8E424914202D15FF4800127E0216836
:1031B000DFF8D824914202D15FF080611FE02168DE
:1031C000DFF8CC24914201D1042118E02168DFF816
:1031D000C424914201D1402111E02168DFF8B824D4
:1031E000914202D14FF4806109E02168DFF8AC24FC
:1031F000914202D14FF4804101E05FF48021084008
:10320000002800F0CE8020680068400740F1C980A7
:1032100020680068800605D42068006830F004004B
:10322000216808602068A84259D32068DFF8441458
:10323000884201D104204EE02068DFF83C14884227
:1032400001D1402047E02068DFF83014884202D1E5
:103250004FF480603FE02068DFF82414884202D1F8
:103260004FF4804037E02068DFF81814884202D11C
:103270005FF480202FE02068DFF80C14884202D130
:103280005FF4800027E02068DFF80014884202D154
:103290005FF080601FE02068DFF8F413884201D1FE
:1032A000042018E02068DFF8EC13884201D14020A8
:1032B00011E02068DFF8E013884202D14FF480600B
:1032C00009E02068DFF8D413884202D14FF480402F
:1032D00001E05FF48020DFF8CC13086058E020683C
:1032E000DFF89013884201D104204EE02068DFF817
:1032F0008813884201D1402047E02068DFF87C1322
:10330000884202D14FF480603FE02068DFF87013FC
:10331000884202D14FF4804037E02068DFF8641320
:10332000884202D15FF480202FE02068DFF8581334
:10333000884202D15FF4800027E02068DFF84C1358
:10334000884202D15FF080601FE02068DFF8401300
:10335000884201D1042018E02068DFF83813884241
:1033600001D1402011E02068DFF82C13884202D1FF
:103370004FF4806009E02068DFF82013884202D112
:103380004FF4804001E05FF48020DFF81C130860F8
:10339000112084F82100E06A002802D02000E16AB0
:1033A00088472068A84254D3DFF8C4020068216827
:1033B000DFF8C022914201D1022148E02168DFF804
:1033C000B822914201D1202141E02168DFF8AC22EE
:1033D000914202D14FF4007139E02168DFF8A02258
:1033E000914202D14FF4005131E02168DFF894227C
:1033F000914202D15FF4003129E02168A24A914252
:1034000002D15FF4001122E02168A04A914202D16A
:103410005FF000711BE021689D4A914201D10221B9
:1034200015E021689B4A914201D120210FE02168DB
:10343000994A914202D14FF4007108E02168974AFD
:10344000914202D14FF4005101E05FF40031084095
:103450004DE0934800682168864A914201D10221DB
:1034600044E02168844A914201D120213EE0216854
:10347000824A914202D14FF4007137E02168804ABC
:10348000914202D14FF4005130E021687D4A9142CF
:1034900002D15FF4003129E021687B4A914202D1D8
:1034A0005FF4001122E02168784A914202D15FF076
:1034B00000711BE02168764A914201D1022115E09A
:1034C0002168744A914201D120210FE02168724A9B
:1034D000914202D14FF4007108E021686F4A914295
:1034E00002D14FF4005101E05FF4003108400028A0
:1034F00000F0BB8020680068800740F1B68020683B
:103500000068800605D42068006830F00200216859
:1035100008602068A8424DD320685649884201D1EE
:10352000022044E020685449884201D120203EE036
:1035300020685249884202D14FF4007037E0206879
:103540004F49884202D14FF4005030E020684D4985
:10355000884202D15FF4003029E020684A4988425D
:1035600002D15FF4001022E020684849884202D16D
:103570005FF000701BE020684549884201D10220BD
:1035800015E020684349884201D120200FE02068DF
:103590004149884202D14FF4007008E020683F4959
:1035A000884202D14FF4005001E05FF400303D4901
:1035B00008604CE020682F49884201D1022044E095
:1035C00020682D49884201D120203EE020682B4907
:1035D000884202D14FF4007037E0206828498842C1
:1035E00002D14FF4005030E020682649884202D1D1
:1035F0005FF4003029E020682349884202D15FF45B
:10360000001022E020682149884202D15FF000705A
:103610001BE020681E49884201D1022015E0206885
:103620001C49884201D120200FE020681A498842B5
:1036300002D14FF4007008E020681849884202D196
:103640004FF4005001E05FF4003017490860606BF0
:103650006063012084F82100002084F82000A06A23
:10366000002802D02000A16A884731BD81000240B5
:1036700000040240080002401C00024030000240EA
:1036800044000240580002406C00024080000240AA
:10369000080402401C04024030040240440402407A
:1036A00000000240040402400400024010B4046818
:1036B00063604468102C04D10468A2600468E1606F
:1036C00003E00468A1600468E26010BC7047000079
:1036D00010B502224FF44071FF2000F0B3F94FF40F
:1036E00082724FF48171022000F0ACF905224FF490
:1036F0000F71022000F0A6F94FF48A724FF40671A0
:10370000022000F09FF940F21A2440F21512210025
:10371000022000F097F940F201124FF405710220E7
:1037200000F090F940F2FF124FF44371022000F0D4
:1037300089F90121200000F006F801214FF40670FC
:1037400000F001F810BD2DE9F84F06000F00002031
:10375000ADF800005FF0000A5FF0000B40F20E4889
:1037600001224146022000F0A8F8DFF81856E87957
:1037700000F012FB0400287A00F00EFB50EA04145B
:10378000687A00F009FB8146A87A00F005FB50EA50
:1037900009152000C0B2A9465FFA89F959EA002943
:1037A000300080B24FF40571401A0ED0801E15D043
:1037B000801E1CD0801E23D0801E2AD0801E31D0B7
:1037C000801E38D0801E3FD047E04FF6FE7010EAD2
:1037D0000909380040B250EA09093EE04FF6FD7091
:1037E00010EA0909380040B259EA400935E04FF6BD
:1037F000FB7010EA0909380040B259EA80092CE050
:103800004FF6F77010EA0909380040B259EAC009CA
:1038100023E04FF6EF7010EA0909380040B259EA88
:1038200000191AE04FF6DF7010EA0909380040B2BB
:1038300059EA401911E04FF6BF7010EA0909380043
:1038400040B259EA801908E04FF67F7010EA090982
:10385000380040B259EAC019FFE74A4692B24146E1
:10386000022000F0EFF8BDE8F18F38B504000D003C
:10387000200080B2B0F5897F06D0B0F58A7F0BD0EA
:10388000B0F58B7F10D017E02B0002224FF4897126
:10389000022000F08DF90FE02B0002224FF48A7114
:1038A000022000F085F907E02B0002224FF48B7113
:1038B000022000F07DF9FFE731BD2DE9F84F8AB015
:1038C00004000D00160000208DF800005FF00008D5
:1038D00000208DF80100002001900DF11C0B3A2012
:1038E0004146C9B20BF8010018F101084046C0B2C8
:1038F0000BF8004018F1010803204146C9B20BF84B
:10390000010018F10108280080B2000A4146C9B23E
:103910000BF8010018F101084046C0B20BF8005046
:1039200018F10108300080B2000A4146C9B20BF814
:10393000010018F101084046C0B20BF8006018F110
:10394000010806210DF11D0000F058FA070040465D
:10395000C0B20BF8007018F10108404600210200C7
:10396000D2B20BF802105FF000085FF000090DF111
:10397000080A9DF81C104A46D2B20AF8021019F142
:103980000109404610F10108C0B207281CDA404680
:10399000C0B21BF80000C0B2000900F018FA494696
:1039A000C9B20AF8010019F101094046C0B21BF87A
:1039B000000010F00F0000F00AFA4946C9B20AF8F8
:1039C000010019F10109DCE70D204946C9B20AF8E6
:1039D000010019F101090A204946C9B20AF801009B
:1039E00019F1010900204946C9B20AF8010002A8EC
:1039F000FDF796FC0F23020092B202A9E24800F004
:103A000045FADFF888A300208AF80000FFF76EF877
:103A100083469AF90000002811D1FFF767F8B0EB50
:103A20000B00DB4909888842F3D301208AF80000A3
:103A3000D84800F025FC02A9D1A000F021FC0BB071
:103A4000BDE8F08F2DE9F04F89B004000D0016009D
:103A5000002700208DF800005FF0000B0DF1180A20
:103A60003A203900C9B20AF801007F1C3800C0B200
:103A70000AF800407F1C06203900C9B20AF801008C
:103A80007F1C280080B2000A3900C9B20AF8010080
:103A90007F1C3800C0B20AF800507F1C300080B292
:103AA000000A3900C9B20AF801007F1C3800C0B210
:103AB0000AF800607F1C06210DF1190000F09EF944
:103AC0003900C9B20AF801007F1C38000021020049
:103AD000D2B20AF8021000275FF000080DF10409C5
:103AE0009DF818104246D2B209F8021018F10108E8
:103AF0003800471CC0B207281CDA3800C0B21AF8D8
:103B00000000C0B2000900F062F94146C9B209F8EC
:103B1000010018F101083800C0B21AF8000010F0D6
:103B20000F0000F054F94146C9B209F8010018F13C
:103B30000108DDE70D204146C9B209F8010018F17E
:103B400001080A204146C9B209F8010018F101082C
:103B500000204146C9B209F8010001A8FDF7E0FBC9
:103B60000F23020092B201A9874800F08FF9DFF815
:103B70001C92002089F80000FEF7B8FF824699F9F0
:103B80000000002811D1FEF7B1FFB0EB0A00804918
:103B900009888842F3D3012089F800007D4800F0AD
:103BA0006FFB01A976A000F06BFB09B0BDE8F08FB8
:103BB0002DE9F84F94B004000D0016001F005FF0CF
:103BC000000800208DF80000002001900DF1080B86
:103BD0003A204146C9B20BF8010018F101084046ED
:103BE000C0B20BF8004018F1010810204146C9B2DC
:103BF0000BF8010018F10108280080B2000A4146C4
:103C0000C9B20BF8010018F101084046C0B20BF828
:103C1000005018F10108300080B2000A4146C9B2D4
:103C20000BF8010018F101084046C0B20BF8006023
:103C300018F1010870004146C9B20BF8010018F1F3
:103C40000108380000124146C9B20BF8010018F112
:103C500001084046C0B20BF8007018F101083800A6
:103C600000164146C9B20BF8010018F101083800EE
:103C700000144146C9B20BF8010018F101080B21EC
:103C80000DF1090000F0BAF84146C9B20BF8010085
:103C900018F10108404600210200D2B20BF80210D0
:103CA0005FF000085FF000090DF11C0A9DF8081094
:103CB0004A46D2B20AF8021019F10109404610F141
:103CC0000108C0B20C281CDA4046C0B21BF8000044
:103CD000C0B2000900F07BF84946C9B20AF80100F9
:103CE00019F101094046C0B21BF8000010F00F00A6
:103CF00000F06DF84946C9B20AF8010019F101094E
:103D0000DCE70D204946C9B20AF8010019F10109A2
:103D10000A204946C9B20AF8010019F10109002038
:103D20004946C9B20AF8010007A8FDF7F9FA0F23BE
:103D3000020092B207A9144800F0A8F8DFF84CA0DE
:103D400000208AF80000FEF7D1FE83469AF90000B1
:103D5000002811D1FEF7CAFEB0EB0B000C49098810
:103D60008842F3D301208AF800000A4800F088FA5C
:103D700007A903A000F084FA15B0BDE8F08F000099
:103D800025730A001002002060010020CE000020F0
:103D9000CC000020D04B000801000800C0B2302841
:103DA00007DB0800C0B23A2803DAB1F13000C0B234
:103DB0000CE00800C0B2412807DB0800C0B2472869
:103DC00003DAB1F13700C0B200E0FF207047010014
:103DD0000800C0B20A2803DA30310800C0B20CE093
:103DE0000800C0B20A2807DB0800C0B2102803DAB6
:103DF00037310800C0B200E03020704703000020D7
:103E00000A00511ED2B2002A03D01A7810185B1C87
:103E1000F6E7C0B24042C0B27047000010B50400DF
:103E2000002C01D1012030E0A0690028FFD194F9D5
:103E30003900002805D1002084F83800200000F067
:103E400033FA022084F839002068C06830F400504A
:103E50002168C860200000F08FF92068006930F404
:103E60009040216808612068406930F02A0021688C
:103E700048612068C06850F400502168C860002084
:103E8000E063012084F83900002010BD2DE9F843DB
:103E900005000C0016001F00002095F93990B9F1BB
:103EA000010F02D0B9F1220F6AD1002C03D03000EB
:103EB00080B2002801D1012063E095F93800012883
:103EC00001D102205DE0012085F838000020E86380
:103ED00095F93900222803D1322085F8390002E013
:103EE000122085F83900AE84EE84E88C00282DD0AD
:103EF000E88C401EE884A868B0F5805F17D13B00CD
:103F000000228021280000F0C5F8002801D00320FD
:103F100037E0A046B8F80000C005C00D2968486029
:103F20002869002801D1A41CDFE7641CDDE73B0001
:103F300000228021280000F0ADF8002801D00320E5
:103F40001FE0207829684860641CCEE73B0000220F
:103F50004021280000F09EF8002801D0032010E046
:103F600095F93900322803D1222085F8390002E082
:103F7000012085F83900002085F83800002000E095
:103F80000220BDE8F283F2B504001500002094F988
:103F90003960012E01D0122E41D10098002803D0A3
:103FA000280080B2002801D1012039E094F93800BE
:103FB000012801D1022033E0012084F83800009864
:103FC000A062A5850020E06394F93900122803D18E
:103FD000322084F8390002E0222084F839000FF200
:103FE0004500616B88620FF27900616BC8620FF265
:103FF0008100616B08636F462B009BB23A682068B2
:10400000011D606BFEF77DFE2068406950F04000A6
:1040100021684861002084F83800002000E0022078
:10402000F2BD000038B50400656A206800688006AB
:1040300012D40020E8852868406930F040002968E3
:10404000486195F93900322803D1122085F83900EA
:1040500002E0012085F83900280000F011FB31BD95
:1040600038B50400656A280000F046FB31BD000049
:1040700038B50400656A0020E8850020E884012046
:1040800085F83900E86B50F01000E863280000F074
:1040900034FB31BD2DE9F84305000E0017001C006C
:1040A0005FF00009FEF722FD8046380040B200288C
:1040B0002FD1286800683040B0425AD014F1010F67
:1040C000F7D0002C05D0FEF711FDB0EB08008442BC
:1040D000EFD22868C06830F080002968C86028687E
:1040E000C06830F020002968C8602868C06830F4D3
:1040F00080702968C86028684069400840002968C5
:104100004861012085F83900002085F83800032037
:1041100030E0286800683040B0422AD114F1010F25
:10412000F7D0002C05D0FEF7E1FCB0EB080084428C
:10413000EFD22868C06830F080002968C86028681D
:10414000C06830F020002968C8602868C06830F472
:1041500080702968C8602868406940084000296864
:104160004861012085F83900002085F838000320D7
:1041700000E00020BDE8F283F8B5040000212068CB
:10418000026932F44052E068024320680261A56887
:1041900020690543606905432068C26836480240CB
:1041A0002A432068C2602068426932F44072A069E4
:1041B0000243206842612068304A90422DD1FEF7C8
:1041C00064FC0700FEF761FC0600FEF75EFC1921A7
:1041D0004F4362689200B7FBF2F26423B2FBF3F242
:1041E0004E4363689B00B6FBF3F301FB00F160688C
:1041F0008000B1FBF0F06421B0FBF1F1642000FB22
:104200001133180132306421B0FBF1F010F00F00CF
:1042100050EA0210216888602CE0FEF726FC0700B7
:10422000FEF723FC0600FEF720FC19214F436268CD
:104230009200B7FBF2F26423B2FBF3F24E436368E1
:104240009B00B6FBF3F301FB00F160688000B1FB5B
:10425000F0F06421B0FBF1F1642000FB1133180190
:1042600032306421B0FBF1F010F00F0050EA021080
:1042700021688860F1BD0000F3E9FFFF00380140CC
:104280000EB4C0B5024603A800210190009101AB15
:104290000121044878440C30FBF74AFF06BC5DF866
:1042A00010FB00BF0B09000030B585B0040020688A
:1042B0008949884241D18948016851F480410160AF
:1042C000006810F48040049004988548016851F01B
:1042D00001010160006810F00100049004984FF49F
:1042E0000070009002200190032003907D4D6946EC
:1042F000280000F003FA4FF4806000900020019045
:10430000002002906946280000F0F8F9764D7748C1
:104310002860002068600020A8600020E86000207D
:104320002861002068612020A8614FF40050E861F6
:104330002800FEF7B9FC65636C6220686C4988420E
:1043400059D16648016851F008010160016811F017
:10435000080104910499016851F0080101600068A6
:1043600010F00800049004985D48016851F00101C4
:104370000160006810F00100049004984FF4806020
:10438000009002200190032003905A4D69462800B6
:1043900000F0B4F94FF4006000900020019000207C
:1043A00002906946280000F0A9F9002204212800A3
:1043B00000F0C3FA04200090012001900320039034
:1043C0006946280000F09AF94B4D4C4828600020BF
:1043D00068600020A8600020E860002028610020BC
:1043E00068612020A8614FF40050E8612800FEF7C2
:1043F0005BFC65636C6205B030BD80B53748016811
:1044000051F004010160006810F004000090009871
:104410003B48314901605FF4E13141600021816036
:104420004FF40051C160002101610C214161002164
:1044300081610021C161FFF7F1FC002201212520EB
:10444000FEF7EBFB2520FEF7FDFB012201210F20EB
:10445000FEF7E3FB0F20FEF7F5FB01BD11B581B0C0
:104460000C004FF6FF73012201A92548FFF70EFD4E
:10447000019816BD80B52348016851F48021016080
:10448000006810F48020009000981F4818490160CF
:104490005FF4E1314160002181604FF40051C1605F
:1044A000002101610C214161002181610021C16174
:1044B000FFF7B4FC002201212720FEF7AEFB2720E6
:1044C000FEF7C0FB012201210D20FEF7A6FB0D2007
:1044D000FEF7B8FB01BD0000003801401810024093
:1044E0001410024000080140A001002058000240C2
:1044F00000480040000C0140D8010020300002407C
:10450000200100201C1002406001002000B58FB087
:10451000012005905FF48030069000210791022170
:104520000C910D905FF4E0100E9005A8FDF736FD9C
:104530000F20009002200190002002904FF4806034
:1045400003900020049002216846FEF79BF8FEF7D6
:1045500079FA4FF47A71B0FBF1F0FEF77AFB0420A0
:10456000FEF77DFB002200215FF0FF30FEF755FBD8
:104570000FB000BDF8B50025012400F00FFAFFF7D9
:10458000C5FFFFF73AFFFFF775FF534E534F012268
:104590003868011D3000FFF7F6FC01223068011D6C
:1045A0003800FFF7F0FC4E480168096831F004015B
:1045B000026811600168096831F008010068016053
:1045C00048480168096831F0040102681160016817
:1045D000096831F0080100680160FFF779F864218B
:1045E0004FF48B70FFF741F901214FF40570FFF78D
:1045F000AAF8642600273800C0B2142810DA4FF455
:10460000FA70FEF779FA16F5FA76310089B22000D1
:1046100040B241434FF48B70FFF727F97F1CEAE764
:1046200000252800C0B2142810DA4FF4FA70FEF703
:1046300063FAB6F5FA76310089B2200040B2414300
:104640004FF48B70FFF711F96D1CEAE700214FF46E
:104650000570FFF778F84FF4FA60FEF74DFA64B290
:104660006442310089B2200040B241434FF48B7064
:10467000FFF7FBF801214FF40570FFF764F8B8E786
:1046800010B40168184A914223D11849184A124BB4
:104690001B685B680C78135513783A2B17D10B788D
:1046A0005B1C0B700B78134413F8013C0A2B10D1E0
:1046B0000B78134413F8023C0D2B0AD100230C781D
:1046C000135501220B4B1A7000220A7001E00022E0
:1046D0000A7010BC7047000060010020200100201B
:1046E000A0010020D8010020004800404C0200201A
:1046F00010020020CE000020704770472DE9F847D7
:1047000002000B0000250026002100275FF00008B2
:104710005FF0000EBEF1100F80F00D81012010FA45
:104720000EF00500186828400600AE4240F00081F7
:104730005868002831D0012820D0022825D003282D
:104740003CD011281DD0122823D0DFF808C26045C4
:1047500023D0DFF804C260451FD0DFF800C26045F7
:104760001BD0DFF8FCC1604517D0DFF8F8C1604509
:1047700013D0DFF8F4C160450FD022E0D8680700FD
:104780001FE0D868001D07001BE0D868083007004C
:1047900017E0D8680C30070013E09868002802D1B1
:1047A0000420070009E09868012803D108200700C9
:1047B000156102E008200700556102E000200700B3
:1047C000FFE7B6F5807F01D2140000E0141DB6F5B6
:1047D000807F02D25FEA8E0803E0BEF108085FEA3C
:1047E00088085FF00F09D4F800C019FA08F03CEA15
:1047F000000C17FA08F050EA0C0CC4F800C0586816
:10480000C00040F195805948D0F800C05CF0010C20
:10481000C0F800C0006810F0010000900098DFF8B8
:1048200050C1704680085CF820A01EF00300C0B2A2
:10483000800019FA00F93AEA090A4E48824202D188
:104840005FF000091FE04C48824202D15FF001098D
:1048500019E04A48824202D15FF0020913E0484859
:10486000824202D15FF003090DE04648824202D144
:104870005FF0040907E04448824202D15FF0050975
:1048800001E05FF006091EF00300C0B2800019FAD3
:1048900000F9514659EA0101704680084CF8201091
:1048A0005868C00307D53948D0F800C056EA0C0C48
:1048B000C0F800C006E03548D0F800C03CEA060C5D
:1048C000C0F800C05868800307D53148D0F800C050
:1048D00056EA0C0CC0F800C006E02D48D0F800C025
:1048E0003CEA060CC0F800C05868C00207D5294849
:1048F000D0F800C056EA0C0CC0F800C006E025480D
:10490000D0F800C03CEA060CC0F800C0586880022D
:1049100007D52148D0F800C056EA0C0CC0F800C0FA
:1049200006E01D48D0F800C03CEA060CC0F800C004
:104930001EF1010EEEE6BDE8F18713005BB2002B1D
:1049400003D00B009BB2036103E00B009BB21B047E
:1049500003617047000011100000121000002110C8
:104960000000221000003110000032101810024028
:104970000800014000080140000C01400010014007
:104980000014014000180140001C014000040140D7
:1049900004040140080401400C04014080B50748AC
:1049A000016851F0100101600320FEF730F900208A
:1049B000FEF7AEF800F004F8002002BD002002402F
:1049C00080B51648016851F001010160006810F0DF
:1049D0000100009000980520FEF719F9002200213F
:1049E0007FF00B00FEF719F9002200217FF00A008A
:1049F000FEF713F9002200217FF00900FEF70DF900
:104A0000002200217FF00300FEF707F900220021B9
:104A10005FF0FF30FEF701F901BD00BF1810024042
:104A2000F0B40246106895681318506803EB500400
:104A3000C0071CD54D441AE013F8017B05F8017B33
:104A4000491EF9D198B113F8011BC6F38106032E54
:104A500008BF13F8016B01EB06214942801C294471
:104A600005D011F8016B05F8016B401EF9D1A34286
:104A70000ED013F8016B16F0030104BF13F8011BED
:104A8000C91C30090F28DBD113F8010B0F30D7E711
:104A9000F0BC02F10C0070470F49086850F00100AB
:104AA00008600E4A13680E48034013600B680D48F7
:104AB00003400B60086830F480200860106830F410
:104AC000FE0010605FF41F00074908605FF000609F
:104AD00006490860704700000010024004100240C0
:104AE0000000FFF8FFFFF6FE0810024008ED00E0AE
:104AF0007047FEE7FEE7FEE7FEE7FEE780B500F061
:104B000011F8FEF7CBF801BD80B50448FEF730F987
:104B100001BD80B50248FEF72BF901BDA0010020C0
:104B2000D801002002480168491C0160704700BF9D
:104B30004402002010B5074979441831064C7C44E2
:104B4000163404E00A68081D114488470146A14252
:104B5000F8D110BD08000000240000009BC6FFFF34
:104B600080010000D000002000000000B5FEFFFF23
:104B7000A0010000A60000000000002000F00DF8D9
:104B8000002801D0FFF7D6FFAFF300800020AFF37D
:104B90000080FFF7EFFC00F002F80120704700F002
:104BA00001B8000007463846FDF7EEF9FBE738B5D7
:104BB00004460D46284600F005F8A84218BF002418
:104BC000204632BD0149FFF749BC00BF84000020E8
:104BD000CDA8D1B6B3ACCAB120CAFDBEDDD6A13ACC
:104BE0000A00000002030405060708090A0B0C0D61
:104BF0000E0F101000000000010203040102030464
:104C0000060708090148804701480047994A0008FB
:104C1000154C0008AFF30080AFF30080FFF7AEFF44
:104C2000FFF7FEBFFFF7FEBFFFF7FEBFFFF7FEBFB8
:104C3000FFF7FEBFFFF7FEBFFFF7FEBFFFF7FEBFA8
:104C4000FFF7FEBFFFF7FEBFFFF7FEBFFFF7FEBF98
:104C5000FFF7FEBFFFF7FEBFFFF7FEBFFFF7FEBF88
:104C6000FFF7FEBFFFF7FEBFFFF7FEBFFFF7FEBF78
:104C7000FFF7FEBFFFF7FEBFFFF7FEBFFFF7FEBF68
:104C8000FFF7FEBFFFF7FEBFFFF7FEBFFFF7FEBF58
:104C9000FFF7FEBFFFF7FEBFFFF7FEBFFFF7FEBF48
:104CA000FFF7FEBFFFF7FEBFFFF7FEBFFFF7FEBF38
:104CB000FFF7FEBFFFF7FEBFFFF7FEBFFFF7FEBF28
:104CC000FFF7FEBFFFF7FEBFFFF7FEBFFFF7FEBF18
:104CD000FFF7FEBFFFF7FEBFFFF7FEBFFFF7FEBF08
:104CE000FFF7FEBFFFF7FEBFFFF7FEBFFFF7FEBFF8
:104CF000FFF7FEBFFFF7FEBFFFF7FEBFFFF7FEBFE8
:104D0000FFF7FEBFFFF7FEBFFFF7FEBFFFF7FEBFD7
:104D1000F0060700A24A04261500080452FF01E32A
:104D200056141410010000F614F0071601000000DC
:104D30000400002000012002D51200082C43C312F9
:104D40003C2101100302040101D044200220010093
:104D5000200852D050610812C808F212B464000151
:034D60000A000145
:0400000508004C158E
:00000001FF
