:020000040800F2
:10000000D0120020CD4E0008C14D0008C34D00089D
:10001000C54D0008C74D0008C94D0008000000008C
:10002000000000000000000000000000E94E000891
:10003000CB4D000800000000ED4E0008CD4D00083B
:10004000F14E0008F54E0008F94E0008FD4E00087C
:10005000014F0008054F0008094F00080D4F000828
:10006000114F0008154F0008194F00081D4F0008D8
:10007000214F0008E34D0008254F0008D94D000826
:10008000294F00082D4F0008314F0008354F000858
:10009000394F00083D4F0008414F0008454F000808
:1000A000494F00084D4F0008514F0008554F0008B8
:1000B000594F00085D4F0008614F0008654F000868
:1000C000694F00086D4F0008714F0008754F000818
:1000D000794F00087D4F0008814F0008854F0008C8
:1000E000894F00088D4F0008914F0008954F000878
:1000F000994F00089D4F0008A14F0008A54F000828
:10010000A94F0008AD4F0008B14F0008B54F0008D7
:10011000B94F0008BD4F0008C14F0008C54F000887
:10012000C94F0008CD4F0008D14F0008D54F000837
:100130002DE9F04F80460FF21C60A5B017461D4612
:10014000D0E90023CDE91223002004910D900DF198
:10015000500A6FF0004900E0E7190020ADF80200F6
:1001600012AB4FF0FF3239460DF1020001F089F871
:100170000446012C04DA3878441EA441E443E40F19
:10018000BDF8020025280CBFA4F1010BA346BBF16A
:10019000010F0EDB3E4616F8011B0498C0470028ED
:1001A000049000F0D2820D98401CBBF1010B0D9021
:1001B000F1D1BDF80200252807D100200790089052
:1001C00009900A900B900C9005E00028C4D10D987E
:1001D000BDE240F0010017F8011F2029F9D02329C2
:1001E0000DD02B2904D02D2906D030290AD00CE0BF
:1001F00040F0020080B2EEE740F00400FAE740F081
:100200000800F7E740F01000F4E72A290ED129682A
:10021000296051F8042B2960002A0F9204D551421D
:1002200040F004000F9180B27F1C11E000210F917B
:1002300009E00F99494505D001EB810302EB430129
:1002400030390F917F1C3A78A2F130010A29F0D39E
:1002500039782E2903D04FF0FF310E911DE017F8A9
:10026000011F2A2907D1296829607F1C51F8042B16
:1002700029600E9211E000210E9109E00E99494586
:1002800005D001EB810302EB430130390E917F1C55
:100290003A78A2F130010A29F0D3ADF840000FF20C
:1002A000BC40397800F0FEFF08B117F8010B8DF85B
:1002B00042009DF84200682802BF39786829622010
:1002C00005D06C2804BF38786C2803D171208DF8D4
:1002D00042007F1C14A8069017F8014BB4F12500CA
:1002E0002AD01C3800F0CB80001F022840F2C780C3
:1002F000133800F0EC80093800F0C180801E00F057
:100300005381401E00F02C81401E022840F2B7802D
:10031000001F00F02581401F00F08280401E00F089
:10032000D680401E2CD0C01E0BD0801E00F0CF8087
:10033000C01E00F0CC805AE125208DF8500001202D
:100340005EE19DF842006C282868286014D050F8BF
:10035000046B286005960E9C002C04D5304600F0F6
:10036000ADFF044606E022460021304600F0C2FF01
:1003700000B1841B089444E150F8042B28602FE15D
:10038000296829603C2451F8040B29600021CDE93B
:10039000020114A80590DDE90201069E11B908B911
:1003A0000E9AB2B10206120FA0EB02123032D2B294
:1003B000631E3A2AA8BF273200099A5540EA017005
:1003C000090908BF00281C4603D0059AA3199A42C0
:1003D000E8D3A0190590C4F13C010E980891814220
:1003E00009DA401A0A904FF6EF71BDF84000084054
:1003F000ADF8400005E1002840F103819DF8400080
:1004000000F01400102840F0FC800F98079A801A22
:100410000A9A801A441A012CC0F2F3800A94F0E080
:100420009DF8420062281AD0682806D06A280CD0AD
:100430006C281CD0712808D019E02868286050F872
:10044000041B28600D980880DBE02868286050F8BD
:10045000042B28600D98C117C2E90001D1E028687B
:10046000286050F8041B28600D980870C9E02868BF
:10047000286050F8041B28600D980860C1E02868C7
:10048000C01D20F007022A60D2E9000108322A606C
:10049000CDE90201002902D507982D210AE0BDF817
:1004A0004000810702D507982B2103E0C00705D53E
:1004B0000798202100F80A10401C079014A80799FB
:1004C00008180590214602A800F090FB99E09DF8DD
:1004D00042006C280DD0712818BF6A2809D12868FD
:1004E000C01D20F007022A60D2E9000108322A600C
:1004F00005E02968296051F8040B29600021CDE945
:1005000002019DF84200682803D1DDE9020180B2B2
:100510000BE0622803D1DDE90201C0B205E07428D6
:1005200018BF7A2804D1DDE902010021CDE90201DA
:100530009DF8400000072ED5DDE90201002908BF23
:10054000002828D044F02000782824D107983021B2
:1005500000F80A10401C411C079100F80A401AE0FC
:100560009DF84200294600F0FDF8CDE9020100297E
:1005700002DA07982D210AE0BDF84000810702D574
:1005800007982B2103E0C00705D50798202100F824
:100590000A10401C079014A80799081805902146D6
:1005A00002A800F09FFA2CE09DF842006C2809D0C8
:1005B000012007902868286050F8041B28608DF8F7
:1005C00050101EE02868286001AA50F8041B28601B
:1005D000ADF804100020ADF806004FF0FF300E908B
:1005E00002A9404600F0F5F800280AD5ADE0252024
:1005F0008DF85000012007901CB18AF801400220BC
:1006000007900F980799401A0A99401A0899401ABA
:100610000B99401A0999401A0C99441A9DF8400008
:10062000400710D420208DF80000002609E00123A7
:100630006A4602A9404600F000FE002840F085808E
:10064000761CA642F3DB079E0DF1500B0AE01BF867
:10065000011B0498C0470028049076D00D98401CD8
:100660000D90761E002EF2D130208DF800004FF054
:10067000000B0A9E09E001236A4602A9404600F0E9
:10068000DCFD002861D10BF1010BB345F3DB089EC3
:10069000DDF814B00AE01BF8011B0498C0470028DD
:1006A000049052D00D98401C0D90761E002EF2D171
:1006B00030208DF800004FF0000B0B9E09E0012365
:1006C0006A4602A9404600F0B8FD00283DD10BF172
:1006D000010BB345F3DB05980899099E01EB000B6C
:1006E00009E01BF8011B0498C047049068B30D98FB
:1006F000401C0D90761E002EF3D130208DF80000A6
:100700004FF0000B0C9E08E001236A4602A9404608
:1007100000F093FDC8B90BF1010BB345F4DB9DF874
:10072000400040077FF519AD20208DF8000000261D
:1007300000E0761CA642BFF610AD01236A4602A96E
:10074000404600F07AFD0028F3D04FF0FF3025B08E
:10075000BDE8F08F0000000000000000686A6C74C3
:100760007A4C0000622826D068281DD06A2808D05C
:100770006C2827D0712804D0742823D07A280CD074
:1007800020E00868C01D20F007000860D0E90023C1
:10079000083008601946104670470A680A6052F827
:1007A000040B0A60002170470A680A6052F8040BC3
:1007B0000A6000B20BE00A680A6052F8040B0A6093
:1007C00040B204E00A680A6052F8040B0A60C117DC
:1007D00070472DE9F44F0D4694B0D5F830B0BBF119
:1007E000000F804648BF6FF0004B00F0AFFD696B13
:1007F000401801900FF67020D0E90023CDE90223C4
:1008000095F83800400702D40198412806D24020CC
:100810000DF1100A01904FF0000909E000F09CFD75
:100820005FEA000AF7D14FF0FF3058E1ABEB040B61
:10083000BBF1010FC0F2CD801498018802AA0DF11E
:10084000010000F0E1FD0028044600F1D580149875
:10085000008810B9641E00F1CF80A345C0F2B980B2
:10086000686901992218914280F0A180296AC5F82F
:1008700034904042401AA969401A696A401AE969ED
:10088000401AA96AA0EB010995F83800400710D476
:1008900020208DF80000002609E001236A46294641
:1008A000404600F0CAFC002840F0A680761C4E4569
:1008B000F3DB6E6957460BE017F8011BA868C047C9
:1008C0000028A86000F09880E86A401CE862761E64
:1008D000002EF1D130208DF8000000272E6A09E0AB
:1008E00001236A462946404600F0A7FC002840F054
:1008F00083807F1CB742F3DBAE69EF680AE017F82C
:10090000011BA868C0470028A86075D0E86A401C91
:10091000E862761E002EF2D130208DF8000000270C
:100920006E6A08E001236A462946404600F085FCCD
:10093000002861D17F1CB742F4DBE868A969EE6941
:100940000F180AE017F8011BA868C0470028A86024
:1009500052D0E86A401CE862761E002EF2D13020A8
:100960008DF800000027AE6A08E001236A46294698
:10097000404600F062FC00283ED17F1CB742F4DB09
:1009800095F8380040070ED520208DF8000000268D
:1009900007E001236A462946404600F04EFC58BB5A
:1009A000761C4E45F5DB4FF00009C5F81490224641
:1009B00068690DF10101504400F034FD68692018A8
:1009C00068611498801C1490801E008800287FF4B1
:1009D0002DAF686B6969401A296A401AA969401AE3
:1009E000696A401AE969401AA96A471A95F83800F5
:1009F000400710D400240CE04FF0FF3968E0A868ED
:100A00002021C0470028A860F6D0E86A401CE862B0
:100A1000641CBC42F3DB6B6952462946404600F039
:100A20000CFC0028E8D12C6A002609E0A8683021D7
:100A3000C0470028A860DFD0E86A401CE862761C46
:100A4000A642F3DBAB69EA682946404600F0F5FBB5
:100A50000028D1D16C6A002609E0A8683021C0477F
:100A60000028A860C8D0E86A401CE862761CA6424C
:100A7000F3DBE868A969EB690A182946404600F0EB
:100A8000DCFB0028B8D1AC6A002609E0A868302158
:100A9000C0470028A860AFD0E86A401CE862761C16
:100AA000A642F3DB95F8380040070DD5002409E095
:100AB000A8682021C0470028A8609DD0E86A401C93
:100AC000E862641CBC42F3DBC5F81490C5F83490AE
:100AD00004A882451CBF504600F0E0FC484615B013
:100AE000BDE8F08F2DE9FA4E05460A462F696F2AB8
:100AF00008BF082405D041F02000782814BF0A243C
:100B000010243C26D5E90001642A18BF692A8146D1
:100B10008A4605D1002903DAD9F100096AEB4A0AAD
:100B2000BAF1000F08BFB9F1000F0CD1286B50B912
:100B3000082C36D195F83800000732D530203B26F6
:100B400087F83B002DE0E31748465146224600F067
:100B5000E5FCA4FB0023A9EB02023032D2B2A6F1DD
:100B6000010B3A2A5E4603DB9DF80030513B9A1890
:100B70000BF8072081465FEA010A08BFB9F1000FB0
:100B800003D0E868F1198842DDD3082C09D195F823
:100B90003800000705D5F05D302802D0761E3020E1
:100BA000F055C6F13C00A861F119E960296B884253
:100BB00008DA081A28624FF6EF71288F0840288754
:100BC000BDE8F38E00290ED595F8381001F0140118
:100BD000102908D1696B6A69891A2A6A891A0E1A5A
:100BE000012EA8BF2E62BDE8F38E00002DE9F24F62
:100BF00004468EB0D4E90001CDE9020104AF9DF8AE
:100C0000380040F0200BBBF1610F0AD0206B0028A8
:100C100048BF062004D408BFBBF1670F01D10120F3
:100C200020636168C1F30A5040F2FF7290421CD108
:100C3000080304BF2068002809D10320A0619DF8A3
:100C4000380061381A2836D30FF2306108E00320EB
:100C5000A0619DF8380061381A2829D30FF2146179
:100C6000E068032200F0DEFBBEE1012816DA204630
:100C700000F0CBFC012811DB00250020BBF1610F47
:100C800020D1E168302201F8012B4A1CE2609DF876
:100C90003820612A0CBF782258220FE0626840F2A7
:100CA000FE3161F31E52451A62604FF0FF30E5E7F6
:100CB0000FF2BC51D4E70FF2C051D1E70A7061695D
:100CC000891C616110B90026002584E1BBF1610F28
:100CD00040F09780206B00284CBF2126461CD4E9A9
:100CE00000ABDDE902010022002300F0AFFC36B2C8
:100CF0003ABF8BF00040CDE902A0CDE902AB06F18E
:100D000001082D1F8DF810200DF1110700E0C71DFF
:100D1000B8F1010F33DBDDE902010022002300F00E
:100D2000ADFC2CD21C2102A800F0C0FCDDE90201C0
:100D300000F042FDA8F10708B8F1010F814609DB78
:100D400000F066FD02460B46DDE9020100F078FD89
:100D5000CDE90201F81D072105E009F00F0200F8B6
:100D6000012D4FEA2919B9F1010F01DB491EF4D514
:100D7000491E5CBF002200F8012DF9D5C7E70DF12F
:100D80001100391AB142B8BF0E4636B230000DF12B
:100D900011072FD4884206DA04A941184978082996
:100DA000A8BF0F2100DA002104AA821800E0761EF5
:100DB00012F80139401E8B42F9D00F2904D104A941
:100DC00041184A78521C4A70002802D504AF761C9C
:100DD0002D1D36B2701E0DD4C1190A783032D2B230
:100DE0003A2A03DB9DF838303A3B9A18401E01F846
:100DF0000129F2D5206B002840F1ED80701E2063A0
:100E0000E9E0DDE902010022002300F01FFC3CBF05
:100E100081F00041CDE902012DB247F297506843BD
:100E20004B49DFF8309190FBF1F52DB2C5F1070A7F
:100E3000BAF1010F90461CDBDDE902675FEACA7078
:100E400007D542464B463046394600F0B9FD0646C6
:100E50000F464046494642464B464FEA6A0A00F072
:100E6000AFFDBAF1000F80468946E7D1CDE90267B0
:100E700024E0CAF1000A0026374F14E05FEACA7086
:100E800007D542464B463046394600F099FD0646A6
:100E90000F464046494642464B4600F091FD4FEA18
:100EA0006A0A80468946BAF1000FE7D1DDE90201FE
:100EB00032463B4600F056FECDE90201BBF1660F1B
:100EC0000CBF05F10A000620216BDFF89090461850
:100ED000142EA8BF132630208DF810000DF1110735
:100EE000012E3DDBDDE9020100F07CFC07F1080189
:100EF00004220A23B0FBF3F303EB8307A0EB4700C4
:100F0000303001F8010C0A20B3FBF0F000EB800751
:100F1000A3EB47033033521E01F8023DE9D1083EEE
:100F2000012E01F10807DBDBDDE9020100F05AFCCC
:100F300000F078FC02460B46DDE9020100F080FC7F
:100F400000224B4600F03CFDCDE90201CAE700BF9C
:100F5000A0860100000024400000F03F84D79741A4
:100F60000DF11100381A0DF1110702E0401E6D1E3F
:100F70007F1C39783029F9D0BBF1660F02D12DB230
:100F8000691C04E0BBF1650F0CBF01210021226B3D
:100F90008E1836B2B042B8BF064636B231001AD407
:100FA000814204DAC85D3528A8BF392000DA302034
:100FB000CA19521E00E0761E12F80139491E8342FA
:100FC000F9D0392802D1C85D401CC855002902D586
:100FD0007F1E761C6D1C2DB29DF83810009533B223
:100FE0003A46204600F003F80FB0BDE8F08F2DE937
:100FF000F04786B006468A4690461D4600F0FBFE46
:10100000012D406A376B90F8009002DA01250FF24B
:1010100070284AF02000BDF93840662808BF641CDB
:1010200012D0672876D114F1040F79DBBC4277DA4D
:1010300096F83800641C000702D4BD42B8BF2F46A2
:1010400024B23F1B48BF002724B2F068B169012CCD
:1010500021DA4A1C30230B54012F03DA96F838109A
:10106000090702D502F80090521CB261E742B8BFEE
:101070007C4224B26142E7197162AF42B8BF3D467B
:10108000B3692DB2F5612A464146181800F0CAF935
:10109000781BB062BAE00818A54216DA2A46414623
:1010A00000F0C0F9B1696918601B012FB16170626D
:1010B00003DA96F83800000705D5F06801F80090CB
:1010C000F069401CF061B762A0E02246414600F0A2
:1010D000A9F9B06920182D1B012F03DA96F83810F2
:1010E000090703D5F16800F80190401C2DB2B061EA
:1010F000AF42B8BF3D46F068B3692DB22A4604EB53
:101100000801181800F08EF9B0692818B061781B32
:1011100070627BE0BAF1610F14D14FF0700A16E0F3
:10112000BD4204DA96F83810090758BF2F467F1ED3
:1011300048BF0027BAF1670F14BF4FF0450A4FF0C0
:10114000650A04E0BAF1410F08BF4FF0500AB169D7
:10115000F0684A1CB261012F18F8013B0B5403DA06
:1011600096F83810090715D5531CB36102F80090A2
:10117000012F0FDB6D1E2DB2AF42B8BF3D462DB221
:101180002A464146181800F04DF9B0692818B06198
:10119000781B7062F068B1690918200081F800A01E
:1011A00004D42B20487001F1020804E02D224A707B
:1011B00001F102086442002502AF08E00A226846F5
:1011C00000F032FE019807F8010B6D1C009C21B263
:1011D0000129F3DA022D06DA4AF02000652804BF5F
:1011E000302008F8010B4DB9302008F8010B07E05A
:1011F0006D1E02A8285C303008F8010B012DF7DACB
:10120000F068B1690818A8EB0000F06196F83800A2
:1012100000F0140010280DD17069B1690818716AC6
:101220000818F1690818B16A0818716B8842BCBFC8
:10123000081A306206B0BDE8F087F8B504460D46DE
:1012400016461F46002004E0E86A401CE8627F1E44
:10125000002047B116F8011BA868A0470028A86025
:10126000F2D14FF0FF30F2BD00000000000000009E
:101270006E616E004E414E00696E6600494E46003A
:101280003000F8B504460D4616461F4600F0D4FD62
:101290003B4632462946204601B0BDE8F04000F00A
:1012A000E2BD01020278C9B28A421AB11CBF10F82D
:1012B000012FF9E718BF00207047000000F101037B
:1012C000810704D010F8011B89B18107FAD10268A7
:1012D000B2F10131914311F0803F04BF50F8042F67
:1012E000F6E710F8011B11B110F8011BFBE7C01A5B
:1012F00070470000C9B2830706D0521E22D310F8EF
:10130000013B9942F7D11FE0083A13D302F10402DE
:1013100041EA012141EA014150F8043B121F21BF7B
:101320004B40A3F1013C2CEA030C1CF0803FF3D0AE
:10133000C9B2001F083210F8013B521E28BF91EAC3
:10134000030FF8D818BF0120401E704780B500F089
:1013500073FD012002BD000070B5054605F10F00C8
:10136000C408C046C046E400A54232D2082C04D2CC
:10137000082402E0083000F091F8224802681100C9
:101380000CD1011D0A6802B31368A34238BF111DB6
:10139000F8D310E01D68A5420DD2191D0B68002B73
:1013A000F8D11268011D00E0191D0B6893420CD0A2
:1013B0001D68A542F8D361B10D682A68A2F108033F
:1013C000A3420AD26A680A600FE000F06FFD0028AD
:1013D000D0D1C046C046002070BD63190B60121BFF
:1013E0006E685E600B681A602C60096800291DBF7A
:1013F0004A68002A091D00210160C046C04605F167
:10140000080070BDB802002070B504460D461646AF
:1014100000F012FD324629462046BDE8704000F03B
:1014200015BD000062B38B0708D0521E11F8013BB6
:1014300000F8013B00F024808B07F6D1830740F0D1
:10144000208000BF103A07D330B4B1E83810103A0A
:10145000A0E83810F9D230BC530724BFB1E8081017
:10146000A0E8081044BF51F8043B40F8043BD20701
:1014700024BF31F8022B20F8022B44BF0B780370F5
:101480007047083A07D3B1E80810083A40F8043B1F
:1014900040F804CBF7D25307E4E7000000B97047E7
:1014A00038B5A0F108042068082833D310F0070FDE
:1014B00030D1C046C0461848416809B18C4203D2B9
:1014C0006160446017E019464B680BB1A342FAD340
:1014D0000B685D18AC421BD3A54204D12268D21818
:1014E0000A600C4607E04A681AB123681B199A4241
:1014F0000ED362604C60616851B1226813198B424F
:1015000006D1002303600868801820604868606086
:10151000C046C04631BD0000B80200201B4213D1B6
:10152000094236D12AB18446B0FBF2F002FB10C268
:10153000704700F0D1BCFCD30022002370470B00A1
:101540000200002100207047904271EB030CF6D39B
:1015500070B5B1FA81F4B3FA83F52C1BA340C4F142
:10156000200532FA05F63343A2405FF00046E6401C
:1015700002E05B085FEA3202841A71EB030524BFC4
:10158000204629467641F4D302000B0030000021AA
:1015900070BD012ACFD970B5140C20D0B1FA81F4F6
:1015A000B2FA82F5C4F120046419B4F12006D6D34E
:1015B000B2405FF00044F440002502E052085FEAC8
:1015C0003303C61A71EB020E24BF304671466441E4
:1015D0006D41F3D302000B002000290070BD0C46C2
:1015E000B1FBF2F102FB11452D0445EA1045B5FBB4
:1015F000F2F402FB145580B240EA0545B5FBF2F067
:1016000002FB105240EA044070BD30B4436803F05E
:10161000004201211B031B0B436004BF0368002B26
:1016200008D10DE00368DD0F45EA440444605B0027
:101630000360491E4468E302F4D523031B0B436097
:1016400043681A434260084630BC70474FF4001CA0
:101650001CEB410F94BF1CEB430F09E041EA030C64
:1016600050EA4C0C52EA0C0C03D2994208BF90424B
:10167000704714BF8B428242704700004FF4001C39
:101680001CEB410F94BF1CEB430F09E041EA030C34
:1016900050EA4C0C52EA0C0C03D28B4208BF824237
:1016A000704714BF994290427047000070B50446DD
:1016B0000D466068C0F30A5040F2FF71884207D1BE
:1016C0006068000304BF2068002817D0022070BDA6
:1016D00020B92046FFF799FF012866DA012D0FDBBC
:1016E00040F2FF71091A8D420AD36068002847BF93
:1016F00000202F4900202F49C4E90001012070BDBE
:101700004142A942616806DA6FF31E51401941EA6D
:101710000050606040E0401E63684519012205F1F9
:10172000350062F31F53352801F00041636003D395
:1017300061600020206070BD002015F11F0F04DAE9
:10174000206823600022203562606A4212D0401E69
:1017500025688041C2F12003C0439D4045EAD07016
:1017600025686668D54006FA03F32B432360636857
:10177000D340636062680A43B0F1004F626003D8EF
:101780000DD12078C0070AD52068401C2060206851
:1017900028B96068401C60604FF0FF3070BD606821
:1017A000884204BF20680028F6D1002070BD00BF29
:1017B0000000F0FF0000F07FF446400D40EAC12039
:1017C000490006D200F014F8004248BF6FF0004014
:1017D000604700F00DF84FF0004188428CBF08468A
:1017E00040426047400D40EAC120490080F00D8032
:1017F00040F00040490DA1F58061491C05D4D1F1AC
:101800001F0154BFC840C01770474FF00000704719
:10181000010040F10980F446404200F005F851F023
:1018200000416047010000BF09D0B0FA80F1884054
:10183000C91CC1F58461090501EBD0214005704741
:10184000F0B44FF0004591EA030F44BF6B4000F045
:1018500045BB00BF841A71EB030604D26E40001B27
:10186000B141121973414FF4001C1CEB410F34BFFE
:101870007CEB430684E00C0DA4EB1356362E7DDC86
:10188000012E43DC45EAC32343EA525312BFD2027E
:1018900092025B08240545EAC12141EA5051D2EB8E
:1018A000C020994125D407D1B0FA80F610FA06F18C
:1018B00064D00020203608E0B1FA81F6B140C6F1CC
:1018C000200220FA02F21143B0404FEAF474B4EB64
:1018D000465434F001064FEA74040AD8D6F50016CF
:1018E000760D04F00044F04061FA06F25040F140F9
:1018F0004840C00A40EA415021F0004128BF5FEA59
:10190000500550F1000044EBD12137E045EAC323F4
:10191000DB0A45EAC121C90AB6F120050EDD42EA1B
:101920000242120CC5F1200603FA06F6EB4042EA29
:1019300006056D42984161F100010DE062FA06F57D
:10194000F240554063FA06FC82EA0C02F3405A402A
:101950006D42904161EB030111F4801F05D1641EBB
:10196000620502D06D004041494121F480114308D5
:1019700075F1004350F1000041EB0451F0BC704799
:101980001CEB410F15D223F0004352EA43060BD063
:101990004FEA4C0CBCEB410F04D80C0D661E342EE4
:1019A000B7DDEBE7801A994150EA410608BF0021F4
:1019B000E4E708BF1CEB430F28BF6FF00001DDE731
:1019C000B0B581EA030C0CF0004C40F2FF7515EA4B
:1019D00011541DBF15EA1357AC42AF4239E0E41968
:1019E00023EA455343F48013C90241F0004141EA20
:1019F000505EC7021100A7FB020200284FF0000052
:101A0000EEFB01204FF00001E3FB072118BF42F07D
:101A10000102401800214941E3FB0E01A4F5806456
:101A20000F0302D252004041494154F101046CDDE0
:101A3000470872F1004250F1000051EB0451A1F54A
:101A400080115CBF41EA0C01B0BD4CEA0551002099
:101A5000B0BD05EA1357AC4214BFAF4241E050EAB3
:101A6000410E1CBF52EA430E02E061460020B0BDA9
:101A700024423C441BD15FEA070EF6D0090302BFA3
:101A800001460020AEF1140EB1FA81F7AEEB070467
:101A900001FA07FE0C37C7F1200100FA07F7C8402A
:101AA0004EEA000E23EA455343F48013A2E733F0D5
:101AB0000043B3FA83F704BFB2FA82FE77440B3FC8
:101AC000E41BB7F1200E2FBF02FA0EF3BB40C7F1A3
:101AD000200E22FA0EFE38BF43EA0E03BA40641C01
:101AE00082E750EA410E14BF52EA430E6FF0000144
:101AF0004FF4001717EB430F8ABF194617EB410F3E
:101B0000B5E74CEA05510020B0BDD4F10104B4F1B1
:101B100020070FDAC4F12007520828BF42F0010263
:101B200010FA07F501FA07F7E1BF2A43E04038430E
:101B3000E1400FE0352C98DCC7F1200452EA400266
:101B400020FA07F218BF42F0010231FA07F0A14073
:101B50000A43002172F1004250F1000051EB0C01E8
:101B6000B0BD00002DE9F04140F2FF7581EA030CA1
:101B70000CF0004C15EA11541DBF15EA1357AC4286
:101B8000AF42E9E0BC41C1F31301C3F31303801A70
:101B9000994143F4801304D2641E400049418018E7
:101BA0005941C90241EA5051B1FBF3F603FB16114A
:101BB000A2FB0675D7EBC020A94102D2761E801881
:101BC0005941C90241EA5051B1FBF3FE03FB1E111A
:101BD000A2FB0E75D7EBC020A94103D2AEF1010ED6
:101BE00080185941890241EA9051760546EA8E2EC5
:101BF000B1FBF3F603FB1611A2FB0675D7EB8020B1
:101C0000A94102D2761E80185941C90241EA5051B9
:101C10004EEA060EB1FBF3F603FB1611A2FB0675A6
:101C2000D7EBC020A94102D2761E80185941C902C3
:101C300041EA5051B1FBF3F703FB1711A2FB073543
:101C4000D3EBC020A94167F100070CBF004247F069
:101C5000010766F3D5274FEA1E31B80814F58064F2
:101C600014DDBD0775F1004250EB0E5051EB0451ED
:101C700011F5801F5CBF41EA0C01BDE8F0814CF01A
:101C80007F6141F0E0410020BDE8F081BD076D08B3
:101C900040EA0E5041F48011D4F10104B4F1200661
:101CA0000ADAC4F120060200E04001FA06F3E1403E
:101CB0001843B24015430EE0342C14DCC6F1200466
:101CC00045EA40056D0820FA06F2154321FA06F0B0
:101CD000A1400D43002175F1004250F1000051EB8D
:101CE0000C01BDE8F08100205FEA0C01BDE8F08145
:101CF000CFB992185B41B3FA83F704BFB2FA82F608
:101D0000BF190B3FB7F120062FBF02FA06F3BB4005
:101D1000C7F1200622FA06F638BF3343BA401CB199
:101D2000E419641E2FE77F4231F00041B1FA81F4DB
:101D300004BFB0FA80F6A4190B3CB4F120062FBF03
:101D400000FA06F1A140C4F1200620FA06F638BFD9
:101D50003143A0403C1B16E7AC421ABF05EA1357BB
:101D6000AF4214E050EA41061CBF52EA4306BFE707
:101D700050EA4107304661461CBF41EA0551BDE8C3
:101D8000F08152EA430C08BFC143BDE8F081002056
:101D90004FF4001616EB410F98BF16EB430F08BF28
:101DA00016EB410F24BFC14305E016EB430F0CBFF8
:101DB00061464CEA0551BDE8F081000080B513484A
:101DC00000F0F6F80FF24C020FF24401016042629B
:101DD00041600FF24402826381600FF24402C160ED
:101DE0000161416181618162C16201634163C263DA
:101DF0000164416401BD10B5044800F0D9F80446FF
:101E0000206808B9FFF7DAFF204610BD0000002067
:101E1000000000002E00000066616C736500000089
:101E2000747275650000000091FBF2F303FB121160
:101E3000C0E900317047000080B5DFF80C0000F009
:101E4000B7F8806902BD00009000002030B430B9BE
:101E50000FF24800D0E90045C2E900451BE00170DF
:101E6000012030BC704730B431B90FF23800D0E9EE
:101E70000045C3E900450EE01AB930BC6FF001001F
:101E8000704708B10A7802800978481E804130BC4A
:101E9000C043C00F7047002030BC704700000000F6
:101EA0000000000000000000000000000749086872
:101EB00008B1002070470648C008C0000860054906
:101EC000C908C900091A0160704700BFC402002098
:101ED000D7120020D014002070470000841A71EB44
:101EE000030603D2001BB141121973414FF4001CC9
:101EF0001CEB410F34BF7CEB430443E00C0DA4EB1F
:101F00001356352E50DC45EAC323DB0A45EAC121CE
:101F1000C912B6F120050DDD63FA05F6EB4086EA3D
:101F20000305124218BF45F00105C01851F1000128
:101F30000CD213E062FA06F5F2405540F3415A40E4
:101F4000B340F3405A408018594107D349085FEA2B
:101F500030005FEA350528BF45F0010501F5801125
:101F6000420875F1004250F1000041EB0451F0BC11
:101F70004FF4001C1CEB410F38BF70470020090DC7
:101F8000090570471CEB410F10D252EA43060BD0F3
:101F9000BCEB410F05D80C0DAB43661E342EB5DDEE
:101FA00002E0AB4380185941F0BC7047F0BC704769
:101FB0007047000038B5040000252078C00740F1C4
:101FC0000D81DFF8040C006810F00C0004280BD021
:101FD000DFF8F40B006810F00C0008282AD1DFF8B5
:101FE000E80B0068C00325D54FF48040B0FA80F0BC
:101FF00050F02000C0B24009C0B2012803D1DFF880
:10200000EC0B006806E04FF48040B0FA80F0DFF897
:10201000E00B00684FF48041B1FA81F111F01F012B
:10202000C840C00740F1DA806068002840F0D680E0
:102030000120A6E3DFF8B40B006830F48030DFF84D
:10204000AC1B0860DFF8A40B006830F48020DFF8D8
:102050009C1B086000F011FE05004FF48040B0FAB0
:1020600080F050F02000C0B24009C0B2012803D176
:10207000DFF8780B006806E04FF48040B0FA80F09B
:10208000DFF86C0B00684FF48041B1FA81F111F078
:102090001F01C840C00706D500F0EFFD401B6528B2
:1020A000DBD303206DE36068B0F5803F08D1DFF833
:1020B0003C0B006850F48030DFF8301B086038E0DB
:1020C0006068002810D1DFF8240B006830F48030FD
:1020D000DFF8181B0860DFF8140B006830F480206C
:1020E000DFF8081B086024E06068B0F5A02F10D16D
:1020F000DFF8F80A006850F48020DFF8F01A086072
:10210000DFF8E80A006850F48030DFF8E01A086071
:102110000FE0DFF8D80A006830F48030DFF8CC1A1E
:102120000860DFF8C80A006830F48020DFF8BC1AC5
:1021300008606068002828D000F09FFD05004FF47B
:102140008040B0FA80F050F02000C0B24009C0B228
:10215000012803D1DFF8940A006806E04FF48040BC
:10216000B0FA80F0DFF8880A00684FF48041B1FAD5
:1021700081F111F01F01C840C0072FD400F07DFD90
:10218000401B6528DBD30320FBE200F076FD050051
:102190004FF48040B0FA80F050F02000C0B2400907
:1021A000C0B2012803D1DFF8440A006806E04FF40A
:1021B0008040B0FA80F0DFF8380A00684FF48041C0
:1021C000B1FA81F111F01F01C840C00706D500F037
:1021D00054FD401B6528DBD30320D2E22078800722
:1021E00040F1BF80DFF8E009006810F00C0F0BD061
:1021F000DFF8D409006810F00C00082839D1DFF8A6
:10220000C8090068C00334D45FF08040B0FA80F0A1
:1022100050F02000C0B24009C0B2012803D1DFF85D
:10222000CC09006806E05FF08040B0FA80F0DFF88B
:10223000C00900685FF08041B1FA81F111F01F011F
:10224000C840C00704D52069012801D0012098E2C8
:10225000DFF8980900685FF0F851B1FA81F130F0C9
:10226000F800626912FA01F10843DFF8801908608A
:1022700077E02069002842D001205FF00041B1FAE8
:1022800081F1DFF8702942F8210000F0F6FC05002A
:102290005FF08040B0FA80F050F02000C0B24009FA
:1022A000C0B2012803D1DFF84409006806E05FF0FE
:1022B0008040B0FA80F0DFF8380900685FF08041B4
:1022C000B1FA81F111F01F01C840C00706D400F037
:1022D000D4FC401B0328DBD3032052E2DFF80C09B7
:1022E00000685FF0F851B1FA81F130F0F8006269EE
:1022F00012FA01F10843DFF8F418086031E0002019
:102300005FF00041B1FA81F1DFF8E82842F82100DE
:1023100000F0B3FC05005FF08040B0FA80F050F0B0
:102320002000C0B24009C0B2012803D1DFF8BC08C8
:10233000006806E05FF08040B0FA80F0DFF8B00897
:1023400000685FF08041B1FA81F111F01F01C840CF
:10235000C00706D500F091FC401B0328DBD3032007
:102360000FE22078000754D5A06900282AD0012068
:102370005FF00041B1FA81F1DFF87C2842F82100DA
:1023800000F07BFC05005FF08040B0FA80F05FF069
:102390008040B0FA80F0DFF8580800685FF08041B4
:1023A000B1FA81F111F01F01C840C00706D400F056
:1023B00064FC401B0328E6D30320E2E1012000F087
:1023C0005FFC26E000205FF00041B1FA81F1DFF808
:1023D000282842F8210000F050FC05005FF0804002
:1023E000B0FA80F05FF08040B0FA80F0DFF80008CB
:1023F00000685FF08041B1FA81F111F01F01C8401F
:10240000C00706D500F039FC401B0328E6D30320A3
:10241000B7E12078400740F1FE80DFF8E007006870
:1024200050F08050DFF8D4170860DFF8D00700685C
:1024300010F0805000900098DFF8C407006850F456
:102440008070DFF8BC17086000F017FC0500DFF8AB
:10245000B0070068C00506D400F00FFC401B6528DB
:10246000F5D303208DE1DFF89C07006840084000A9
:10247000DFF890170860DFF88C07006830F0040080
:10248000DFF88017086000F0F8FB05005FF080407F
:10249000B0FA80F05FF08040B0FA80F050F0400079
:1024A000C0B24009C0B2022803D1DFF85807006863
:1024B00002E0DFF83C0700685FF08041B1FA81F18B
:1024C00011F01F01C840C00708D500F0D6FB401B23
:1024D00041F289318842D9D3032052E1E0680128D2
:1024E00008D1DFF82007006850F00100DFF814176A
:1024F000086037E0E068002810D1DFF808070068BE
:1025000040084000DFF8FC160860DFF8F8060068B5
:1025100030F00400DFF8EC16086023E0E0680528DE
:1025200010D1DFF8E006006850F00400DFF8D416A0
:102530000860DFF8D006006850F00100DFF8C4162C
:1025400008600FE0DFF8BC06006840084000DFF8D4
:10255000B4160860DFF8AC06006830F00400DFF85D
:10256000A4160860E06800282AD000F086FB050069
:102570005FF08040B0FA80F05FF08040B0FA80F009
:1025800050F04000C0B24009C0B2022803D1DFF8C9
:102590007406006802E0DFF8580600685FF08041CA
:1025A000B1FA81F111F01F01C840C00733D400F027
:1025B00064FB401B41F289318842D9D30320E0E01B
:1025C00000F05BFB05005FF08040B0FA80F05FF048
:1025D0008040B0FA80F050F04000C0B24009C0B274
:1025E000022803D1DFF81C06006802E0DFF80006CD
:1025F00000685FF08041B1FA81F111F01F01C8401D
:10260000C00708D500F039FB401B41F289318842F0
:10261000D9D30320B5E0E069002800F0B180DFF8ED
:10262000A805006810F00C00082800F0A780E069F9
:10263000022875D100208021B1FA81F1DFF8B4259C
:1026400042F8210000F019FB05004020B0FA80F0AC
:1026500050F02000C0B24009C0B2012803D1DFF819
:102660008C05006805E04020B0FA80F0DFF88005B6
:1026700000684021B1FA81F111F01F01C840C00784
:1026800006D500F0FAFA401B0328DED3032078E0D9
:10269000206AB0F5803F09D1DFF82C05006830F4DE
:1026A0000030A1680843DFF820150860DFF818053E
:1026B000006830F47410216A0843616A0843DFF847
:1026C0000815086001208021B1FA81F1DFF8242586
:1026D00042F8210000F0D1FA05004020B0FA80F065
:1026E00050F02000C0B24009C0B2012803D1DFF889
:1026F000FC04006805E04020B0FA80F0DFF8F00448
:1027000000684021B1FA81F111F01F01C840C007F3
:1027100036D400F0B2FA401B0328DED3032030E0A9
:1027200000208021B1FA81F1DFF8C82442F82100AD
:1027300000F0A3FA05004020B0FA80F050F020002D
:10274000C0B24009C0B2012803D1DFF8A00400687C
:1027500005E04020B0FA80F0DFF8940400684021E2
:10276000B1FA81F111F01F01C840C00708D500F08F
:1027700084FA401B0328DED3032002E0012000E09E
:10278000002032BD70B504000D000026DFF878048B
:10279000006810F00700A84280F0CE80DFF86804DF
:1027A0000068C008C0002843DFF85C140860DFF848
:1027B0005804006810F00700A84201D0012099E1F8
:1027C0002078800709D5DFF84404006830F0F00075
:1027D000A1680843DFF8341408602078C00740F18E
:1027E0006E816068012820D14FF48040B0FA80F0FB
:1027F00050F02000C0B24009C0B2012803D1DFF878
:10280000EC03006806E04FF48040B0FA80F0DFF897
:10281000E00300684FF48041B1FA81F111F01F012B
:10282000C840C00743D4012064E1606802281DD17C
:102830004020B0FA80F050F02000C0B24009C0B291
:10284000012803D1DFF8A403006805E04020B0FAB6
:1028500080F0DFF89C0300684021B1FA81F111F0AB
:102860001F01C840C00722D4012043E15FF080402F
:10287000B0FA80F050F02000C0B24009C0B2012888
:1028800003D1DFF86803006806E05FF08040B0FA2B
:1028900080F0DFF85C0300685FF08041B1FA81F1FD
:1028A00011F01F01C840C00701D4012022E1DFF868
:1028B0005C0300688008800061680843DFF84C13FF
:1028C000086000F0DAF906006068012810D1DFF82E
:1028D0003C03006810F00C00042800F0F08000F0C9
:1028E000CCF9801B41F289318842F0D3032001E109
:1028F0006068022810D1DFF81403006810F00C00A3
:10290000082800F0DC8000F0B8F9801B41F2893122
:102910008842F0D30320EDE0DFF8F002006810F009
:102920000C0F00F0CC8000F0A8F9801B41F2893137
:102930008842F1D30320DDE02078800709D5DFF855
:10294000CC02006830F0F000A1680843DFF8BC1248
:1029500008602078C00740F1A380606801281FD17B
:102960004FF48040B0FA80F050F02000C0B240092F
:10297000C0B2012802D19D48006806E04FF48040B3
:10298000B0FA80F0DFF8680200684FF48041B1FAD5
:1029900081F111F01F01C840C00741D40120A9E016
:1029A000606802281CD14020B0FA80F050F020006E
:1029B000C0B24009C0B2012802D18C48006805E0CD
:1029C0004020B0FA80F0DFF8280200684021B1FA18
:1029D00081F111F01F01C840C00721D4012089E016
:1029E0005FF08040B0FA80F050F02000C0B24009A3
:1029F000C0B2012802D17D48006806E05FF0804047
:102A0000B0FA80F0DFF8E80100685FF08041B1FAC9
:102A100081F111F01F01C840C00701D4012069E015
:102A2000DFF8E80100688008800061680843DFF88B
:102A3000DC11086000F021F90600606801280FD160
:102A4000DFF8C801006810F00C00042828D000F05E
:102A500014F9801B41F289318842F1D3032049E007
:102A6000606802280ED16948006810F00C00082840
:102A700016D000F002F9801B41F289318842F2D36E
:102A8000032037E06148006810F00C0F08D000F018
:102A9000F4F8801B41F289318842F3D3032029E006
:102AA00059480068C008C000284357490860564884
:102AB000006810F00700A84201D001201AE0207839
:102AC000400707D55148006830F4E060E1680843EA
:102AD0004E4908602078000708D54C48006830F45B
:102AE0006050216950EAC10048490860002000F0A8
:102AF000ACF8002070BDF0B585B001A844491022A3
:102B0000FEF7A0FC43480088ADF800000021002239
:102B10000023002400202C4D2D68290011F00C0505
:102B2000042D02D0082D03D026E03B4D280025E0DF
:102B300001AD11F470164FF47057B7FA87F7FE40E5
:102B4000755D2C00CD0311D51F4D2D686E4615F413
:102B500000354FF48047B7FA87F7FD40AD5D2A0096
:102B60002D4DB5FBF2F565432B0003E02B4D05FB26
:102B700004F52B00180001E0274D280005B0F0BD3A
:102B800080B5FFF7B8FF104909685FF07062B2FACC
:102B900082F2234B11F0F001D140C95CC8402149B9
:102BA00008602048006802BD80B5FFF7E9FF0649CC
:102BB00009685FF46002B2FA82F2194B11F4E06125
:102BC000D140C95CC84002BD0410024080B5FFF787
:102BD000D7FF0E4909685FF4E012B2FA82F2104B97
:102BE00011F46051D140C95CC84002BD00100240E0
:102BF0002410024000004242800442421C10024065
:102C000000700040201002400020024004100240EA
:102C1000AC4E0008A212000800127A0000093D0024
:102C2000BC4E00083C01002080B51C48006850F0F4
:102C300010001A490860032000F09CF8002000F002
:102C400004F800F0E3F8002002BD10B50400FFF71F
:102C500097FF4FF47A71B0FBF1F000F0ABF800226F
:102C600021005FF0FF3000F08BF8002010BD0C4811
:102C70000068401C0A4908607047094800687047AE
:102C800011B581B00024FFF7F8FF0400FFF7F5FF4E
:102C9000001B01998842F9D313BD000000200240B7
:102CA000C002002010F007024D4B1B6819004FF6C0
:102CB000FF0319404B4B53EA02231943484B196059
:102CC000704747480068C0F302207047012110F0A8
:102CD0001F029140444A40B2430942F82310704712
:102CE00010B440B2002808D50A01404B40B210F0A1
:102CF0000F04E31803F8042C03E00A013C4B40B234
:102D0000C25410BC704770B4030013F00704D4F130
:102D10000706052E01D3042001E0D4F10700261D8B
:102D2000072E01D2002500E0E51E012616FA00F06C
:102D3000401E0840A8400121A940491E11400843F7
:102D400070BC704710B50400601EB0F1807F01D3E5
:102D500001200EE0601E274908600F215FF0FF3060
:102D6000FFF7BEFF002024490860072023490860C0
:102D7000002010BD10B504002000FFF793FF10BD28
:102D8000F8B504000D0016000027FFF79AFF0700B2
:102D9000320029003800FFF7B6FF0100200040B2E2
:102DA000FFF79EFFF1BD10B50400200040B2FFF711
:102DB0008DFF10BD10B504002000FFF7C3FF10BD4C
:102DC000042806D10D49096851F004010B4A11602D
:102DD00005E00A49096831F00401084A11607047AA
:102DE0000CED00E00000FA0500E100E018ED00E065
:102DF00000E400E014E000E018E000E010E000E093
:102E000080B500F001F801BD7047000080B517489B
:102E1000006850F00100154908601448006810F07F
:102E20000100009000980520FFF7A4FF0022002178
:102E30007FF00B00FFF7A4FF002200217FF00A00C3
:102E4000FFF79EFF002200217FF00900FFF798FFA7
:102E5000002200217FF00300FFF792FF00220021F3
:102E60005FF0FF30FFF78CFF01BD00BF181002407C
:102E700001000022002901D1012024E091F9210064
:102E8000002802D1002081F82000022081F82100D2
:102E90000868006802006FF30D1248688B681843D9
:102EA000CB6818430B6918434B6918438B69184367
:102EB000CB69184302430868026000204863012080
:102EC00081F8210000207047F8B504000D001600BD
:102ED0001F0094F92000012801D102202AE00120DE
:102EE00084F82000022084F821002068006840084F
:102EF0004000216808603B0032002900200000F0FB
:102F0000BBFC2068006850F002002168086020685F
:102F1000006850F00400216808602068006850F0E4
:102F20000800216808602068006850F001002168EE
:102F300008600020F2BD10B504002068DFF8F81822
:102F400088425AD3DFF8F40800682168DFF8F028D7
:102F5000914201D108214EE02168DFF8E828914232
:102F600001D1802147E02168DFF8DC28914202D1BD
:102F70004FF400613FE02168DFF8D028914202D190
:102F80004FF4004137E02168DFF8C428914202D1B4
:102F90005FF400212FE02168DFF8B828914202D1C8
:102FA0005FF4000127E02168DFF8AC28914202D1EC
:102FB0005FF000611FE02168DFF8A028914201D195
:102FC000082118E02168DFF89828914201D180217A
:102FD00011E02168DFF88C28914202D14FF40061A2
:102FE00009E02168DFF88028914202D14FF40041C6
:102FF00001E05FF40021084059E0DFF87008006844
:103000002168DFF83C28914201D108214EE0216877
:10301000DFF83028914201D1802147E02168DFF8B4
:103020002828914202D14FF400613FE02168DFF887
:103030001C28914202D14FF4004137E02168DFF8AB
:103040001028914202D15FF400212FE02168DFF8BF
:103050000428914202D15FF4000127E02168DFF8E3
:10306000F827914202D15FF000611FE02168DFF88C
:10307000EC27914201D1082118E02168DFF8E02710
:10308000914201D1802111E02168DFF8D8279142D7
:1030900002D14FF4006109E02168DFF8CC279142AA
:1030A00002D14FF4004101E05FF400210840002804
:1030B00000F0D38020680068000740F1CE802068CF
:1030C000006830F00800216808602068DFF86817A1
:1030D000884259D32068DFF86817884201D1082058
:1030E0004EE02068DFF85C17884201D1802047E07D
:1030F0002068DFF85417884202D14FF400603FE0A7
:103100002068DFF84817884202D14FF4004037E0CA
:103110002068DFF83C17884202D15FF400202FE0DE
:103120002068DFF83017884202D15FF4000027E002
:103130002068DFF82417884202D15FF000601FE0AA
:103140002068DFF81817884201D1082018E02068AD
:10315000DFF80C17884201D1802011E02068DFF8E9
:103160000417884202D14FF4006009E02068DFF8BC
:10317000F816884202D14FF4004001E05FF40020CD
:10318000DFF8EC16086058E02068DFF8B4168842D3
:1031900001D108204EE02068DFF8A816884201D14E
:1031A000802047E02068DFF8A016884202D14FF463
:1031B00000603FE02068DFF89416884202D14FF4A7
:1031C000004037E02068DFF88816884202D15FF4BB
:1031D00000202FE02068DFF87C16884202D15FF4DF
:1031E000000027E02068DFF87016884202D15FF007
:1031F00000601FE02068DFF86416884201D10820D3
:1032000018E02068DFF85816884201D1802011E0CC
:103210002068DFF85016884202D14FF4006009E0C0
:103220002068DFF84416884202D14FF4004001E0E4
:103230005FF40020DFF83C160860606B50F001007E
:103240006063042084F82100002084F82000206BB3
:10325000002802D02000216B88472068DFF8D815AD
:1032600088425AD3DFF8D40500682168DFF8D025FA
:10327000914201D104214EE02168DFF8C825914236
:1032800001D1402147E02168DFF8BC25914202D1FD
:103290004FF480613FE02168DFF8B025914202D110
:1032A0004FF4804137E02168DFF8A425914202D134
:1032B0005FF480212FE02168DFF89825914202D148
:1032C0005FF4800127E02168DFF88C25914202D16C
:1032D0005FF080611FE02168DFF88025914201D115
:1032E000042118E02168DFF87825914201D14021BE
:1032F00011E02168DFF86C25914202D14FF4806122
:1033000009E02168DFF86025914202D14FF4804145
:1033100001E05FF48021084059E0DFF850050068C3
:103320002168DFF81C25914201D104214EE021687B
:10333000DFF81025914201D1402147E02168DFF8F4
:103340000825914202D14FF480613FE02168DFF807
:10335000FC24914202D14FF4804137E02168DFF82C
:10336000F024914202D15FF480212FE02168DFF840
:10337000E424914202D15FF4800127E02168DFF864
:10338000D824914202D15FF080611FE02168DFF80C
:10339000CC24914201D1042118E02168DFF8C02437
:1033A000914201D1402111E02168DFF8B824914217
:1033B00002D14FF4806109E02168DFF8AC2491422A
:1033C00002D14FF4804101E05FF4802108400028E1
:1033D00000F0D08020680068400740F1CB80206872
:1033E0000068800605D42068006830F00400216879
:1033F00008602068DFF84014884259D32068DFF85D
:103400004014884201D104204EE02068DFF83414D3
:10341000884201D1402047E02068DFF82C14884220
:1034200002D14FF480603FE02068DFF8201488422A
:1034300002D14FF4804037E02068DFF8141488424E
:1034400002D15FF480202FE02068DFF80814884262
:1034500002D15FF4800027E02068DFF8FC13884287
:1034600002D15FF080601FE02068DFF8F01388422F
:1034700001D1042018E02068DFF8E413884201D16C
:10348000402011E02068DFF8DC13884202D14FF4BD
:10349000806009E02068DFF8D013884202D14FF441
:1034A000804001E05FF48020DFF8C413086058E03A
:1034B0002068DFF88C13884201D104204EE0206898
:1034C000DFF88013884201D1402047E02068DFF810
:1034D0007813884202D14FF480603FE02068DFF823
:1034E0006C13884202D14FF4804037E02068DFF847
:1034F0006013884202D15FF480202FE02068DFF85B
:103500005413884202D15FF4800027E02068DFF87E
:103510004813884202D15FF080601FE02068DFF826
:103520003C13884201D1042018E02068DFF83013F2
:10353000884201D1402011E02068DFF8281388423A
:1035400002D14FF4806009E02068DFF81C13884244
:1035500002D14FF4804001E05FF48020DFF81413C3
:103560000860112084F82100E06A002802D02000C1
:10357000E16A88472068B04988424ED3AF48006866
:103580002168AF4A914201D1022144E02168AD4A4D
:10359000914201D120213EE02168AB4A914202D103
:1035A0004FF4007137E02168A84A914202D14FF4EC
:1035B000005130E02168A64A914202D15FF4003107
:1035C00029E02168A34A914202D15FF4001122E070
:1035D0002168A14A914202D15FF000711BE021688D
:1035E0009E4A914201D1022115E021689C4A9142F4
:1035F00001D120210FE021689A4A914202D14FF473
:10360000007108E02168984A914202D14FF40051BC
:1036100001E05FF4003108404DE094480068216803
:10362000874A914201D1022144E02168854A9142B2
:1036300001D120213EE02168834A914202D14FF41A
:10364000007137E02168814A914202D14FF4005164
:1036500030E021687E4A914202D15FF4003129E0D6
:1036600021687C4A914202D15FF4001122E0216876
:10367000794A914202D15FF000711BE02168774ADC
:10368000914201D1022115E02168754A914201D190
:1036900020210FE02168734A914202D14FF400715A
:1036A00008E02168704A914202D14FF4005101E0D4
:1036B0005FF400310840002800F0BC8020680068FA
:1036C000800740F1B78020680068800605D4206834
:1036D000006830F00200216808602068564988427E
:1036E0004DD320685649884201D1022044E0206829
:1036F0005449884201D120203EE020685249884246
:1037000002D14FF4007037E020685049884202D15E
:103710004FF4005030E020684D49884202D15FF4F8
:10372000003029E020684B49884202D15FF4001044
:1037300022E020684849884202D15FF000701BE017
:1037400020684649884201D1022015E0206844499A
:10375000884201D120200FE020684249884202D1EE
:103760004FF4007008E020683F49884202D14FF4CE
:10377000005001E05FF400303D4908604CE02068F3
:103780002F49884201D1022044E020682D49884217
:1037900001D120203EE020682B49884202D14FF41D
:1037A000007037E020682949884202D14FF4005068
:1037B00030E020682649884202D15FF4003029E0D9
:1037C00020682449884202D15FF4001022E020687A
:1037D0002149884202D15FF000701BE020681F4938
:1037E000884201D1022015E020681D49884201D19C
:1037F00020200FE020681B49884202D14FF400705E
:1038000008E020681849884202D14FF4005001E0D6
:103810005FF4003017490860606B6063012084F832
:103820002100002084F82000A06A002802D0200097
:10383000A16A884710BD00008100024000040240D8
:10384000080002401C0002403000024044000240D8
:10385000580002406C000240800002400804024010
:103860001C040240300402404404024000000240B4
:10387000040402400400024010B404686360446819
:10388000102C04D10468A2600468E16003E00468BD
:10389000A1600468E26010BC7047000080B502229D
:1038A0004FF44071FF2000F09CF94FF482724FF406
:1038B0008171022000F095F905224FF40F7102206A
:1038C00000F08FF94FF48A724FF40671022000F075
:1038D00088F940F2151240F21A21022000F081F915
:1038E00040F201124FF40571022000F07AF940F223
:1038F000FF124FF44371022000F073F9012140F2EE
:103900001A2000F006F801214FF4067000F001F8CB
:1039100001BD2DE9F84304000D00002600275FF0EB
:103920000008012240F20E41022000F09FF8DFF86B
:103930000C06C07900F00CFB8146DFF80006007A27
:1039400000F006FB50EA09100700DFF8F005407AA6
:1039500000F0FEFA8146DFF8E405807A00F0F8FA1C
:1039600050EA09108046FFB25FFA88F858EA07204B
:103970000600A4B220004FF40571401A0ED0801E3C
:1039800012D0801E17D0801E1CD0801E21D0801E19
:1039900026D0801E2BD0801E30D036E04FF6FE7031
:1039A00006406DB22E4330E04FF6FD7006406DB21A
:1039B00056EA450629E04FF6FB7006406DB256EA1E
:1039C000850622E04FF6F77006406DB256EAC5064E
:1039D0001BE04FF6EF7006406DB256EA051614E094
:1039E0004FF6DF7006406DB256EA45160DE04FF611
:1039F000BF7006406DB256EA851606E04FF67F703E
:103A000006406DB256EAC516FFE7320092B240F2A8
:103A10000E41022000F0E5F8BDE8F18338B504005E
:103A20000D00A4B22000B0F5897F06D0B0F58A7FE2
:103A30000BD0B0F58B7F10D017E02B0002224FF493
:103A40008971022000F096F90FE02B0002224FF45A
:103A50008A71022000F08EF907E02B0002224FF459
:103A60008B71022000F086F9FFE731BD2DE9F047A8
:103A700088B004008A46150000265FF00009002780
:103A80005FF000083A2069465FFA89F909F80100F9
:103A900019F1010968465FFA89F909F8004019F13E
:103AA0000109032069465FFA89F909F8010019F153
:103AB0000109504680B2000A69465FFA89F909F89F
:103AC000010019F1010968465FFA89F909F800A0B7
:103AD00019F10109280080B2000A69465FFA89F9E4
:103AE00009F8010019F1010968465FFA89F909F836
:103AF000005019F1010906210DF1010000F053FAFF
:103B0000060068465FFA89F909F8006019F10109B1
:103B1000002069465FFA89F909F801000020814612
:103B2000002007009DF8000003A9FFB278547F1C15
:103B3000484610F10109C0B207281ADA68465FFA50
:103B400089F919F80000C0B2000900F018FA03A9B9
:103B5000FFB278547F1C68465FFA89F919F80000B3
:103B600010F00F0000F00BFA03A9FFB278547F1C8D
:103B7000DEE70D2003A9FFB278547F1C0A2003A9B9
:103B8000FFB278547F1C002003A9FFB2785403A829
:103B9000FDF794FB02000F2392B203A9E84800F05E
:103BA00049FA0020E7490870FFF767F88046E548C2
:103BB00090F90000002811D1FFF75FF8B0EB080082
:103BC000E14909888842F2D30120DE490870DF48C4
:103BD00000F034FC03A9D8A000F030FC08B0BDE828
:103BE000F0872DE9F04389B004000D0016005FF066
:103BF00000095FF0000800273A2069465FFA89F95A
:103C000009F8010019F1010968465FFA89F909F814
:103C1000004019F10109062069465FFA89F909F89F
:103C2000010019F10109280080B2000A69465FFA13
:103C300089F909F8010019F1010968465FFA89F963
:103C400009F8005019F10109300080B2000A6946F4
:103C50005FFA89F909F8010019F1010968465FFA6C
:103C600089F909F8006019F1010906210DF1010037
:103C700000F099F969465FFA89F909F8010019F12C
:103C80000109002069465FFA89F909F8010000205E
:103C90008146002080469DF8000003A95FFA88F85D
:103CA00008F8010018F10108484610F10109C0B2F6
:103CB000072820DA68465FFA89F919F80000C0B2CF
:103CC000000900F05CF903A95FFA88F808F8010020
:103CD00018F1010868465FFA89F919F8000010F038
:103CE0000F0000F04CF903A95FFA88F808F801000A
:103CF00018F10108D8E70D2003A95FFA88F808F841
:103D0000010018F101080A2003A95FFA88F808F8F1
:103D1000010018F10108002003A95FFA88F808F8EB
:103D2000010003A8FDF7CAFA02000F2392B203A90B
:103D3000834800F07FF9002082490870FEF79DFF5C
:103D40000700804890F90000002810D1FEF795FF89
:103D5000C01B7D4909888842F3D301207949087046
:103D60007A4800F06BFB03A973A000F067FB09B071
:103D7000BDE8F0832DE9F04792B004008A461500B3
:103D80001E005FF0000900275FF000083A20694636
:103D90005FFA89F909F8010019F1010968465FFA2B
:103DA00089F909F8004019F10109102069465FFA04
:103DB00089F909F8010019F10109504680B2000A99
:103DC00069465FFA89F909F8010019F101096846A5
:103DD0005FFA89F909F800A019F10109280080B2F9
:103DE000000A69465FFA89F909F8010019F1010929
:103DF00068465FFA89F909F8005019F1010968006D
:103E000069465FFA89F909F8010019F101093012D0
:103E100069465FFA89F909F8010019F10109684654
:103E20005FFA89F909F8006019F10109301669464D
:103E30005FFA89F909F8010019F10109301469469E
:103E40005FFA89F909F8010019F101090B210DF157
:103E5000010000F0A8F869465FFA89F909F8010045
:103E600019F10109002069465FFA89F909F8010092
:103E700000208146002007009DF8000005A9FFB240
:103E800078547F1C484610F10109C0B20C281ADA98
:103E900068465FFA89F919F80000C0B2000900F01D
:103EA0006EF805A9FFB278547F1C68465FFA89F95D
:103EB00019F8000010F00F0000F061F805A9FFB23A
:103EC00078547F1CDEE70D2005A9FFB278547F1CD3
:103ED0000A2005A9FFB278547F1C002005A9FFB273
:103EE000785405A8FDF7EAF902000F2392B205A95C
:103EF000134800F09FF8002012490870FEF7BDFE3D
:103F00008046104890F90000002811D1FEF7B5FE58
:103F1000B0EB08000C4909888842F2D30120094916
:103F200008700A4800F08AFA05A903A000F086FA92
:103F300012B0BDE8F087000025730A00840200205B
:103F4000D40100204201002040010020984E0008CA
:103F50000100C9B2302906DBC9B23A2903DAB1F14E
:103F60003000C0B20AE0C9B2412906DBC9B2472914
:103F700003DAB1F13700C0B200E0FF207047010062
:103F8000C9B20A2903DA11F13000C0B20AE0C9B29D
:103F90000A2906DBC9B2102903DA11F13700C0B2D1
:103FA00000E030207047020000200B00591EDBB2F9
:103FB000002B03D013781818521CF6E7C0B2404209
:103FC000C0B2704710B50400002C01D1012030E0D0
:103FD000A0690028FFD194F93900002805D10020FC
:103FE00084F83800200000F03BFA022084F8390001
:103FF0002068C06830F400502168C860200000F0DC
:1040000092F92068006930F49040216808612068C6
:10401000406930F02A00216848612068C06850F487
:1040200000502168C8600020E063012084F8390056
:10403000002010BD2DE9F84304000D0016001F00FC
:104040005FF0000994F939008146B9F1010F02D0FF
:10405000B9F1220F69D1002D02D0B6B2002E01D1E4
:10406000012063E094F93800012801D102205DE0CD
:10407000012084F838000020E06394F939002228F8
:1040800003D1322084F8390002E0122084F839008C
:10409000A684E684E08C00282DD0E08C401EE084CD
:1040A000A068B0F5805F17D13B000022802120007E
:1040B00000F0C8F8002801D0032037E0A846B8F87F
:1040C0000000C005C00D216848602069002801D1AA
:1040D000AD1CDFE76D1CDDE73B00002280212000E6
:1040E00000F0B0F8002801D003201FE028782168F4
:1040F00048606D1CCEE73B0000224021200000F00C
:10410000A1F8002801D0032010E094F939003228EA
:1041100003D1222084F8390002E0012084F839001C
:10412000002084F83800002000E00220BDE8F2837F
:10413000F2B504001500002794F939000700012F9B
:1041400001D0122F41D10098002802D0ADB2002D2D
:1041500001D101203AE094F93800012801D1022070
:1041600034E0012084F838000098A062A585002082
:10417000E06394F93900122803D1322084F8390021
:1041800002E0222084F839000FF24900616B886256
:104190000FF27D00616BC8620FF28500616B0863EE
:1041A00068460600ADB22B0032682068011D606BC6
:1041B000FEF78AFE2068406950F04000216848619F
:1041C000002084F83800002000E00220F2BD704793
:1041D0007047000038B50400656A206800688006F2
:1041E00012D40020E8852868406930F04000296832
:1041F000486195F93900322803D1122085F8390039
:1042000002E0012085F83900280000F02EFB31BDC6
:1042100038B50400656A2800FFF7D9FF31BD0000FA
:1042200038B50400656A0020E8850020E884012094
:1042300085F83900E86B50F01000E8632800FFF7BC
:10424000C7FF31BD2DE9F04104000D0016001F002D
:104250005FF00008FEF711FD804676B2002E2FD1E8
:10426000206800682840A8425AD017F1010FF7D003
:10427000002F05D0FEF701FDB0EB08008742EFD21A
:104280002068C06830F080002168C8602068C0687D
:1042900030F020002168C8602068C06830F4807069
:1042A0002168C86020684069400840002168486172
:1042B000012084F83900002084F83800032030E021
:1042C000206800682840A8422AD117F1010FF7D0D2
:1042D000002F05D0FEF7D1FCB0EB08008742EFD2EB
:1042E0002068C06830F080002168C8602068C0681D
:1042F00030F020002168C8602068C06830F4807009
:104300002168C86020684069400840002168486111
:10431000012084F83900002084F83800032000E0F0
:104320000020BDE8F081F8B5040000252068006990
:1043300030F44050E168084321680861A0682169B1
:1043400008436169084305002068C068394908408E
:1043500028432168C8602068406930F44070A16932
:1043600008432168486120683349884230D1FEF70C
:104370002DFC0700FEF72AFC0600FEF727FC19219A
:1043800001FB07F162689200B1FBF2F16422B1FB1C
:10439000F2F1192202FB06F263689B00B2FBF3F212
:1043A0001923584363689B00B0FBF3F06423B0FB10
:1043B000F3F0642303FB1020000132306422B0FBD1
:1043C000F2F010F00F0050EA0110216888602FE031
:1043D000FEF7EAFB0700FEF7E7FB0600FEF7E4FB4B
:1043E000192101FB07F162689200B1FBF2F164222E
:1043F000B1FBF2F1192202FB06F263689B00B2FBEB
:10440000F3F21923584363689B00B0FBF3F0642375
:10441000B0FBF3F0642303FB102000013230642270
:10442000B0FBF2F010F00F0050EA01102168886034
:10443000F1BD0000F3E9FFFF003801400EB400B504
:1044400082B003A9009102466B46012103487844DB
:104450000A30FBF76DFE06BC5DF810FB1B0A00007E
:1044600010B586B004002068A04988424DD1A0480C
:10447000006850F480409E4908609D48006810F430
:104480008040009000989B48006850F001009949D6
:1044900008609848006810F00100009000984FF400
:1044A00000700190022002900320049001A992481C
:1044B00000F022FA4FF4806001900020029000206A
:1044C000039001A98C4800F017FA8C488C490860C9
:1044D00000208B4948600020894988600020884975
:1044E000C860002086490861002085494861202075
:1044F000834988614FF400508149C8618048FEF7C4
:10450000B7FC7F4860637E48446220687D498842EA
:1045100068D17748006850F0080075490860744811
:10452000006810F00800009000987148006850F092
:1045300008006F4908606E48006810F0080000909D
:1045400000986C48006850F001006A4908606948AA
:10455000006810F00100009000984FF48060019016
:10456000022002900320049001A9674800F0C4F9DA
:104570004FF400600190002002900020039001A9F8
:10458000614800F0B9F9002204215F4800F01FFBE8
:1045900004200190012002900320049001A95A48B0
:1045A00000F0AAF959485A49086000205849486063
:1045B00000205749886000205549C86000205449B0
:1045C00008610020524948612020514988614FF418
:1045D00000504F49C8614E48FEF74AFC4C486063A2
:1045E0004B48446206B010BD80B54148006850F0A9
:1045F00004003F4908603E48006810F00400009045
:1046000000983A48434908605FF4E1304149486006
:104610000020404988604FF400503E49C8600020A7
:104620003C4908610C203B494861002039498861B8
:1046300000203849C8613748FFF7C4FC0022012137
:104640002520FEF79DFB2520FEF7ADFB0122012171
:104650000F20FEF795FB0F20FEF7A5FB01BD11B55E
:1046600081B00C004FF6FF73012201A92948FFF722
:10467000E1FC019816BD80B52748006850F4802001
:10468000254908602448006810F4802000900098B4
:104690001C48224908605FF4E1302049486000204E
:1046A0001E4988604FF400501C49C86000201B4917
:1046B00008610C20194948610020184988610020D0
:1046C0001649C8611548FFF77DFC0022012127200B
:1046D000FEF756FB2720FEF766FB012201210D2085
:1046E000FEF74EFB0D20FEF75EFB01BD00380140DA
:1046F0001810024014100240000801405800024007
:104700001402002000480040000C0140300002402C
:104710004C020020940100201C100240D401002013
:1047200000B58FB0012005905FF480300690002026
:10473000079002200C905FF480300D905FF4E01041
:104740000E9005A8FDF736FC0F2000900220019086
:10475000002002904FF4806003900020049002211A
:104760006846FEF70FF8FEF70BFA4FF47A71B0FBCC
:10477000F1F0FEF71FFB0420FEF722FB00220021D0
:104780005FF0FF30FEF7FCFA0FB000BD80B5FEF71A
:104790004BFAFFF7C5FFFFF727FFFFF76CFF01227A
:1047A0004C480068011D4C48FFF7C2FC01224A48F2
:1047B0000068011D4748FFF7BBFC484800680068D7
:1047C00030F0040045490968086044480068006802
:1047D00030F00800414909680860414800680068F5
:1047E00030F004003E49096808603D4800680068F0
:1047F00030F008003A4909680860FFF74FF84FF4B5
:1048000016714FF48B70FFF709F901214FF4057011
:10481000FFF77FF84FF47A70FEF732FA31494FF420
:104820008B70FFF7FBF84FF47A70FEF729FA6421DA
:104830004FF48B70FFF7F2F841F27070FEF720FA38
:1048400000214FF40570FFF764F84FF416714FF430
:104850008B70FFF7E3F84FF47A60FEF711FA01214D
:104860004FF40570FFF755F8D4E701681E4A9142EE
:104870002ED11949096849681C4A1D4B1B78995467
:104880001A4909783A2920D119490978491C184A46
:1048900011701649164A1278511811F8011C0A298C
:1048A00016D11249124A1278511811F8021C0D291A
:1048B0000ED100210D4A0E4B1B78995401210D4A4F
:1048C000117000210A4A117002E00021084A11709B
:1048D0007047000094010020D40100201402002041
:1048E0004C020020A8FDFFFF004800408402002089
:1048F000C8020020420100202DE9F84100230024D5
:10490000002500265FF0000E5FF0000C6246102AC2
:1049100080F05B815FF0010C1CFA02FC6346D1F869
:1049200000C013EA0C0C64469C4240F04C81D1F864
:1049300004C0BCF1000F3DD0BCF1010F24D0BCF18C
:10494000020F2BD0BCF1030F4CD0BCF1110F1FD0C4
:10495000BCF1120F28D0DFF88C82C4452AD0DFF8D2
:104960008882C44526D0DFF88482C44522D0DFF88F
:104970008082C4451ED0DFF87C82C4451AD0DFF89F
:104980007882C44516D031E0D1F80CC066462DE0DF
:10499000D1F80CC01CF1040C664627E0D1F80CC01D
:1049A0001CF1080C664621E0D1F80CC01CF10C0C7F
:1049B00066461BE0D1F808C0BCF1000F03D15FF0E0
:1049C000040C66460DE0D1F808C0BCF1010F04D11B
:1049D0005FF0080C6646036103E05FF0080C664672
:1049E000436103E05FF0000C6646FFE7FF2C01D84F
:1049F000070000E0071DFF2C02D85FEA820E03E0EB
:104A0000B2F1080C5FEA8C0ED7F800C05FF00F0817
:104A100018FA0EF83CEA080C16FA0EF858EA0C0CD4
:104A2000C7F800C0D1F804C05FEACC0C40F1CB80DD
:104A3000DFF8C8C1DCF800C05CF0010CDFF8BC8115
:104A4000C8F800C0DFF8B4C1DCF800C01CF00108F1
:104A5000CDF80080DDF800C0DFF8A4C15FEA92085D
:104A60005CF828C065465FF00F0C12F003085FFA8F
:104A700088F85FEA88081CFA08FC35EA0C05DFF8BC
:104A800084C1604502D15FF0000C24E0DFF878C1FA
:104A9000604502D15FF0010C1DE0DFF870C1604598
:104AA00002D15FF0020C16E0DFF864C1604502D16C
:104AB0005FF0030C0FE0DFF85CC1604502D15FF0EE
:104AC000040C08E0DFF850C1604502D15FF0050C2E
:104AD00001E05FF0060C12F003085FFA88F85FEA65
:104AE00088081CFA08FC5CEA0505DFF814C15FEAD7
:104AF00092084CF82850D1F804C05FEACC3C0AD5A3
:104B0000DFF818C1DCF800C054EA0C0CDFF80C81A7
:104B1000C8F800C009E0DFF804C1DCF800C03CEAD6
:104B2000040CDFF8F880C8F800C0D1F804C05FEAD0
:104B30008C3C0AD5DFF8E8C0DCF800C054EA0C0C65
:104B4000DFF8DC80C8F800C009E0DFF8D4C0DCF88A
:104B500000C03CEA040CDFF8C880C8F800C0D1F8F7
:104B600004C05FEACC2C0AD5DFF8B8C0DCF800C07E
:104B700054EA0C0CDFF8AC80C8F800C009E0DFF89C
:104B8000A4C0DCF800C03CEA040CDFF89880C8F848
:104B900000C0D1F804C05FEA8C2C0AD5DFF888C0C9
:104BA000DCF800C054EA0C0CDFF87C80C8F800C0C8
:104BB00009E0DFF874C0DCF800C03CEA040CDFF860
:104BC0006880C8F800C0521CA1E6BDE8F18152B26D
:104BD000002A02D089B2016102E089B20B040361AC
:104BE000704700000000111000001210000021109A
:104BF0000000221000003110000032101810024096
:104C00000800014000080140000C01400010014074
:104C10000014014000180140001C01400004014044
:104C200004040140080401400C040140816807E0CD
:104C300002681168536889185B18C3600832026003
:104C4000C2689142F4D04A1C8260087870472DE90E
:104C5000FF4D00F10801009100270268520801EBA6
:104C6000C2010191B84600210291039101684908EF
:104C700000EBC101406800F0010501F108044008A3
:104C800004EBC00630E06846FFF7D0FF4FFA80FA29
:104C90000AE000980168081800990290496808180D
:104CA0000390009808300090029803998842F0D051
:104CB00010F801BB029047450CD1B44208BF00F088
:104CC0001DF8276805B14F44606800EB07080834F9
:104CD0004745F2D0BAF1000F07F801BB0AD51AF127
:104CE000010AE8D14745CED1B442CCD1304604B018
:104CF000BDE8F08DBAF1010AD6D5F3E7012000F046
:104D000001B8000080B5C046C046024A1100182014
:104D1000ABBEFBE7260002001348006850F001001C
:104D20001149086011480068114908400F4908609E
:104D30000D4800680F4908400B4908600A480068A0
:104D400030F48020084908600848006830F4FE000C
:104D5000064908605FF41F00074908605FF00060C3
:104D6000064908607047000000100240041002402D
:104D70000000FFF8FFFFF6FE0810024008ED00E01B
:104D800019E050F8041BCB0744BFA9F101035918DF
:104D9000121F0023042A41F8043BF9D25FEA827C07
:104DA0000B4604D54FF0000CA1F800C09B1CD107A6
:104DB00044BF0021197050F8042B002AE1D170473C
:104DC0007047FEE7FEE7FEE7FEE7FEE780B5FDF78A
:104DD0004EFFFEF715F801BD80B50448FEF7ABF8AD
:104DE00001BD80B50248FEF7A6F801BD14020020FF
:104DF0004C02002010B5074979441831064C7C4418
:104E0000163404E00A68081D511888470146A1427B
:104E1000F8D110BD080000003000000065FFFFFF62
:104E200088010000440100200000000023FEFFFF75
:104E30000200000002000000A00100003600000097
:104E4000000000204301000000F00BF8002801D012
:104E5000FFF7D0FF0020C046C046FFF797FC00F0E8
:104E600002F80120704700F001B8000007463846FC
:104E7000FFF748FFFBE738B504460D46284600F02B
:104E800005F8A84218BF0024204632BD0149FFF7AB
:104E9000E6BB00BFFC000020CDA8D1B6B3ACCAB1C0
:104EA00020CAFDBEDDD6A13A0A00000002030405B7
:104EB000060708090A0B0C0D0E0F10100000000069
:104EC00001020304010203040607080901488047A0
:104ED00001480047194D0008DD4E0008C046C04695
:104EE000C046C046FFF7B0FFFFF7FEBFFFF7FEBFAB
:104EF000FFF7FEBFFFF7FEBFFFF7FEBFFFF7FEBFE6
:104F0000FFF7FEBFFFF7FEBFFFF7FEBFFFF7FEBFD5
:104F1000FFF7FEBFFFF7FEBFFFF7FEBFFFF7FEBFC5
:104F2000FFF7FEBFFFF7FEBFFFF7FEBFFFF7FEBFB5
:104F3000FFF7FEBFFFF7FEBFFFF7FEBFFFF7FEBFA5
:104F4000FFF7FEBFFFF7FEBFFFF7FEBFFFF7FEBF95
:104F5000FFF7FEBFFFF7FEBFFFF7FEBFFFF7FEBF85
:104F6000FFF7FEBFFFF7FEBFFFF7FEBFFFF7FEBF75
:104F7000FFF7FEBFFFF7FEBFFFF7FEBFFFF7FEBF65
:104F8000FFF7FEBFFFF7FEBFFFF7FEBFFFF7FEBF55
:104F9000FFF7FEBFFFF7FEBFFFF7FEBFFFF7FEBF45
:104FA000FFF7FEBFFFF7FEBFFFF7FEBFFFF7FEBF35
:104FB000FFF7FEBFFFF7FEBFFFF7FEBFFFF7FEBF25
:104FC000FFF7FEBFFFF7FEBFFFF7FEBFFFF7FEBF15
:104FD000FFF7FEBFFFF7FEBFE400F8FFDC00FAFFBB
:104FE0008100D1001F02040101440100209401004E
:104FF0002044010020440100204401002039010028
:0E5000002020010020DF0005A24A040A000162
:0400000508004EDDC4
:00000001FF
